:100000000C9402010C942A010C942A010C942A01EC
:100010000C942A010C942A010C942A010C945A1075
:100020000C942A010C942A010C942A010C94A91016
:100030000C942A010C942A010C9404110C942A01AA
:100040000C9465140C942A010C946B0F0C94450FBE
:100050000C942A010C942A010C942A010C942A0174
:100060000C942A010C942A017374645F6D73677396
:100070002F54696D650063643731363663373463F6
:1000800035353263333131666263633266653561BB
:1000900037626332383900726F7373657269616CED
:1000A0005F6D7367732F546F706963496E666F007D
:1000B00030616435316638386663343438393266D5
:1000C00038633130363834303737363436303035BF
:1000D00000726F7373657269616C5F6D7367732F04
:1000E0004C6F6700313161626437333163323539C7
:1000F00033333236316364363138336264313264DB
:100100003632393500726F7373657269616C5F6D79
:100110007367732F52657175657374506172616D89
:1001200000396630653938626461363539383139BD
:1001300038366464663533616661376134306534FE
:10014000390067656F6D657472795F6D7367732FC2
:10015000566563746F7233003461383432623635F9
:10016000663431333038346463326231306662343D
:1001700038346561376631370067656F6D65747255
:10018000795F6D7367732F547769737400396631C3
:10019000393566383831323436666466613237391B
:1001A000386431643365656263613834610002012B
:1001B0000000000000240027002A000000000025A5
:1001C0000028002B000404040404040404020202B6
:1001D0000202020303030303030102040810204088
:1001E0008001020408102001020408102000000011
:1001F00008000201000003040700000000000000E6
:1002000000000A1711241FBECFEFD8E0DEBFCDBF1C
:1002100012E0A0E0B1E0E6E1FAE302C005900D9241
:10022000AC33B107D9F726E0ACE3B2E001C01D92D0
:10023000A630B207E1F711E0C2E0D1E004C0219797
:10024000FE010E948C18C130D107C9F70E94AF147B
:100250000C94091D0C94000080E090E0892B29F09B
:100260000E94A80E81110C94000008958E549D4F99
:10027000FC01808108958DE891E0089589E791E07F
:100280000895FC0187A190A50895CF92DF92EF9287
:10029000FF92FC011082118212821382DB0120E0A6
:1002A00030E04D9150E0022E02C0440F551F0A94D9
:1002B000E2F7052E000C660B770BC080D180E28040
:1002C000F3804C295D296E297F2940835183628305
:1002D0007383285F3F4F2032310519F7FF90EF906D
:1002E000DF90CF900895CF92DF92EF92FF9220E0BF
:1002F00030E06A017B01022E04C0F694E794D794A3
:10030000C7940A94D2F7FC01C192CF01285F3F4FF6
:100310002032310571F7FF90EF90DF90CF90089574
:10032000089588E591E0089582E491E00895CF93DF
:10033000DF93DC0116968D919C911797FB01169621
:100340002D913C91179725393105ECF44491149681
:100350006D917C911597EB01C20FD31F48831696C0
:100360002D913C91179731961496CD91DC9115976C
:10037000C20FD31F48812F5F3F4F17963C932E9398
:1003800016974111DCCF16962D913C911797253980
:10039000310534F022E030E019963C932E93189703
:1003A00014962D913C911597820F931FDF91CF9159
:1003B00008950C94970141110C949701CB01089575
:1003C000CB0108950895442341F021E030E0FC0181
:1003D0003383228386E091E00895CB01089581E282
:1003E00091E0089585E091E0089584EE90E008950D
:1003F00081ED90E008954F925F926F927F928F927D
:100400009F92AF92BF92EF92FF920F931F93CF9361
:10041000DF9300D000D0CDB7DEB77C018B01FB01AC
:100420008191BF01F7018283CE0101960E944501AF
:1004300089819A81AB81BC814C015D01F5E08F0E11
:10044000911CA11CB11CA8014C5F5F4FFA0125E073
:1004500030E02901612C712C481459046A047B0492
:1004600028F4618161932F5F3F4FF3CFF801E80FCC
:10047000F91F1482F7015483438305960F900F9060
:100480000F900F90DF91CF911F910F91FF90EF9000
:10049000BF90AF909F908F907F906F905F904F90A4
:1004A000089580EB90E0089587E990E008954F92D9
:1004B0005F926F927F928F929F92AF92BF92CF92F4
:1004C000DF92EF92FF920F931F93CF93DF93CDB7FD
:1004D000DEB72C970FB6F894DEBF0FBECDBF7C0100
:1004E0008B01DB018C9190E0F7019383828311965D
:1004F0002C91922B938382836E5F7F4FCE01019666
:100500000E94450189809A80AB80BC80240135011E
:10051000F6E04F0E511C611C711C98012B5F3F4F80
:10052000F90186E090E0AC0160E070E0441555050B
:100530006605770520F4418141930196F4CFF801D7
:10054000E80DF91D1582D70115963C932E9314974B
:10055000B4016A5F7F4F600F711FCE0105960E9444
:100560004501BAE08B0E911C4D805E806F807884CF
:10057000A401092C000C660B770B440D551D661D5C
:10058000771DD801A80DB91DCD01801B910B5C0111
:10059000C12CD12CA416B506C606D70628F48D9119
:1005A000FD0132978083F0CF5401A40CB51CB80133
:1005B0006A0D7B1DFB0131971082C4010197800FEA
:1005C000911FF70197838683CE0109960E9445010A
:1005D00095012C5F3F4F89859A85AB85BC852901A4
:1005E000032E000C66087708480E591E6A1E7B1EF3
:1005F000F5013396E00FF11FA9014A01A12CB12C9E
:1006000084149504A604B70428F4618161934F5FB4
:100610005F4FF3CF820F931FF801E80FF91FDF013F
:1006200011971C9221503109020F131FD7011996FF
:100630001C930E9318972181428150E060E070E096
:10064000BA0155274427522B2081422B2381722B3C
:10065000F701428753876487758704962C960FB6F7
:10066000F894DEBF0FBECDBFDF91CF911F910F91E8
:10067000FF90EF90DF90CF90BF90AF909F908F90C2
:100680007F906F905F904F90089586E790E0089577
:1006900088E690E00895FC01DB014C9150E060E0B9
:1006A00070E0428353836483758311968C91119714
:1006B000582B428353836483758312968C911297CF
:1006C000682B428353836483758313968C911397AD
:1006D000782B428353836483758314964C911497CB
:1006E00050E060E070E0468357836087718715961D
:1006F0008C911597582B4683578360877187169680
:100700008C911697682B468357836087718717965D
:100710008C91782B468357836087718788E090E0BF
:100720000895DC01FB0112968C9112978083139639
:100730008C911397818314968C91149782831596CC
:100740008C911597838316968C91169784831796B0
:100750008C911797858318968C9118978683199694
:100760008C91878388E090E008958F929F92AF925A
:10077000BF92CF92DF92EF92FF920F931F93FC01F3
:10078000DB01C380C294C69427E0C2228C2C912C3A
:10079000A12CB12C8D929D92AD92BC9213970481A5
:1007A00010E020E030E043E0000F111F221F331F54
:1007B0004A95D1F768017901C828D928EA28FB2889
:1007C000CD92DD92ED92FC921397458150E060E06E
:1007D00070E01BE0440F551F661F771F1A95D1F775
:1007E0008A019B010C291D292E293F290D931D9358
:1007F0002D933C93139746814F7050E060E070E07A
:1008000083E1440F551F661F771F8A95D1F7402B50
:10081000512B622B732B4D935D936D937C931397A8
:10082000868182958F7007810F7710E020E030E09D
:1008300094E0000F111F221F331F9A95D1F7082B48
:100840000115110521053105A1F0005813402109BA
:10085000310997E1000F111F221F331F9A95D1F71D
:10086000042B152B262B372B0D931D932D933C9387
:1008700013974781407850E060E070E0742F66275E
:10088000552744270D911D912D913C911397402B95
:10089000512B622B732B4D935D936D937C93139728
:1008A00088E090E01F910F91FF90EF90DF90CF9044
:1008B000BF90AF909F908F900895EF92FF920F930B
:1008C0001F93CF93DF938C017B01BC016E5F7F4F41
:1008D000C7010E94B503EC01B8016A5F7F4FC701F1
:1008E0008C0F9D1F0E94B503C80FD91FB801665F0A
:1008F0007F4FC7018C0F9D1F0E94B5038C0F9D1F5A
:10090000DF91CF911F910F91FF90EF900895EF929B
:10091000FF920F931F93CF93DF937C01EB0102961D
:100920000E945D048C01BE01680F791FC7014096CB
:100930000E945D04800F911FDF91CF911F910F9155
:10094000FF90EF9008950F931F93CF93DF938C0147
:10095000EC012796CE010E948704D8019596ED916F
:10096000FC919697CE01DF91CF911F910F91099441
:100970008F929F92AF92BF92CF92DF92EF92FF92AF
:10098000CF93DF93EC014A015B01DB01CA0157E120
:10099000B595A795979587955A95D1F79927AA2741
:1009A000BB270097A105B10521F080589C4FAF4FA0
:1009B000BF4F188219821A82B501A40125E0440FA5
:1009C000551F661F771F2A95D1F74B83B501A401E8
:1009D00033E075956795579547953A95D1F74C83D0
:1009E000B501A401EBE07595679557954795EA9594
:1009F000D1F74D83B501A401F3E17595679557953E
:100A00004795FA95D1F7242F2F70AC01BD0134E042
:100A1000440F551F661F771F3A95D1F7422B4E831F
:100A20006C017D0144E0F594E794D794C7944A950E
:100A3000D1F720E030E0A901C501B4010E940E19F0
:100A400087FD02C0CF8203C08C2D80688F8388E031
:100A500090E0DF91CF91FF90EF90DF90CF90BF902B
:100A6000AF909F908F900895EF92FF920F931F93F6
:100A7000CF93DF937C018B01FC0142815381648120
:100A80007581C8010E94B804EC01F70146815781C5
:100A900060857185C8018C0F9D1F0E94B804C80F26
:100AA000D91FF7014285538564857585C8018C0F70
:100AB0009D1F0E94B8048C0F9D1FDF91CF911F9145
:100AC0000F91FF90EF900895EF92FF920F931F9375
:100AD000CF93DF937C01EB0102960E9434058C01D9
:100AE000BE01680F791FC70140960E943405800F30
:100AF000911FDF91CF911F910F91FF90EF9008957B
:100B0000AF92BF92CF92DF92EF92FF920F931F931B
:100B1000CF93DF93643671053CF0FC01EE54FD4F3A
:100B20002081222309F462C0DA016B01EC01BC01CF
:100B30006D5C7E4FED91FC910190F081E02DCA013A
:100B400009958C017E0124EDE21A2EEFF20A2FEFB7
:100B5000D7012C93FE01E35DFE4F2EEF20833196EB
:100B60008083319690833196980F9095908331963B
:100B7000C0821696DC9245E050E020E030E0C801EB
:100B800007964817590730F46191260F311D4F5FC2
:100B90005F4FF7CF085F1F4F8C0F9D1FFC01E45D77
:100BA000FE4F209520830931B1E01B07A8F46801AE
:100BB0005701C5018E199F0980179107CCF48A81CE
:100BC0009B81F50161915F01DC01ED91FC91019048
:100BD000F081E02D0995EDCF60E971E0CE010E9432
:100BE0003710CC24CA94DD24DA9402C0C12CD12C55
:100BF000C601DF91CF911F910F91FF90EF90DF9091
:100C0000CF90BF90AF9008950C94751BFC01848128
:100C100095810C94751BCF93DF93EC010E9406061F
:100C2000CE01DF91CF910C94751B2F923F924F9282
:100C30005F926F927F928F929F92AF92BF92CF926C
:100C4000DF92EF92FF920F931F93CF93DF93CDB775
:100C5000DEB760970FB6F894DEBF0FBECDBF8C0134
:100C60006B01DB018D909D90AD90BC90FC01828169
:100C70009381A481B58188159905AA05BB0570F4F7
:100C8000B401660F771F660F771F828593850E94D8
:100C9000FE1BD8011B969C938E931A97F8018282B3
:100CA0009382A482B5829601812C912C540144E058
:100CB00050E0B8016A5F7F4F2C5F3F4FF80182819F
:100CC0009381A481B581FA0134961F018816990693
:100CD000AA06BB0650F5D9011196FC901197129601
:100CE0008C9190E0A0E0B0E0DC01992788279F2953
:100CF000F901F0808F29F380BF29F801868397835B
:100D0000A087B187DA01A101149782859385A80F86
:100D1000B91F84E0FB0101900D928A95E1F7FFEF86
:100D20008F1A9F0AAF0ABF0AC7CF4601840E951ECD
:100D3000D4018C9111969C91119712964C90129718
:100D4000512C612C712C320155244424592A482AF3
:100D500013968C91782A5F01F80184859585A68584
:100D6000B78584159505A605B70570F4B201660F21
:100D7000771F660F771F848995890E94FE1BD80113
:100D800055969C938E935497F801448655866686B3
:100D90007786C401412C512C32019801205F3F4FCE
:100DA000D8011C964D915D916D917C911F97F50135
:100DB0003496441655066606770698F5DC011596B6
:100DC000FC90159716964C91169750E060E070E0F5
:100DD000BA01552744275F291496FC9014974F2990
:100DE0001796FC907F29D80150964D935D936D9393
:100DF0007C9353975F01AC014819590954960D90A3
:100E0000BC91A02DA40FB51F44E0F90101900D92F3
:100E10004A95E1F7BFEF4B1A5B0A6B0A7B0A04960F
:100E2000BFCFD601AA0DBB1D8C9111969C91119735
:100E300012968C901297912CA12CB12C54019924CC
:100E40008824992A882A13968C91B82A7F01F80160
:100E500086899789A08DB18D88159905AA05BB054E
:100E600060F4B401660F771F848D958D0E94FE1B80
:100E7000D8015D969C938E935C97F801868A978A39
:100E8000A08EB18E212C312C812C912C54019801F3
:100E9000265E3F4F3A872987F80186899789A08D7A
:100EA000B18D88169906AA06BB0608F05FC0B60188
:100EB0006E0D7F1DCE0101960E94450197012C5FAA
:100EC0003F4F388B2F8749815A816B817C81C901C3
:100ED000330FAA0BBB0B2C013D01440E551E661EA1
:100EE000771E4B865C866D867E8623E0E20EF11CC3
:100EF000F601EE0DFF1D2F853889C901A0E0B0E095
:100F00004B845C846D847E8484159505A605B705A5
:100F100028F4A181A1932F5F3F4FEFCF6F84788892
:100F2000460D571DF601E40FF51F31971082C301DE
:100F300001978C0D9D1DD8015B969C938E935A97BB
:100F40007A015C96ED91FC915D97E20DF31DA98508
:100F5000BA858D919C9191838083BFEF8B1A9B0AF8
:100F6000AB0ABB0AE2E02E0E311C96CFC701609699
:100F70000FB6F894DEBF0FBECDBFDF91CF911F91AA
:100F80000F91FF90EF90DF90CF90BF90AF909F9028
:100F90008F907F906F905F904F903F902F9008952B
:100FA0002F923F924F925F926F927F928F929F9279
:100FB000AF92BF92CF92DF92EF92FF920F931F9367
:100FC000CF93DF93CDB7DEB7E0970FB6F894DEBFCF
:100FD0000FBECDBF8C010E9421142B013C01980152
:100FE00029543D4F3E8F2D8FF90180819181A2813F
:100FF000B381A3019201281B390B4A0B5B0BDA0169
:10100000C901893F9A42A105B10510F035971082B8
:10101000480148E5841A4DEF940AD4018D919C91C2
:10102000892B79F0F801E554FD4F80819181A281EF
:10103000B38184159505A605B70518F4F40111824E
:101040001082980120553D4F3A8F298FA8014455B1
:101050005D4F5C8F4B8F180154E1250E311CC80188
:101060008E549D4F9AA389A3D801A054BD4FB8A711
:10107000AFA3F801E154FD4FFAA7E9A75801F6E53F
:10108000AF1AFDEFBF0A2250310938A32F8FA801F4
:1010900045545D4F5CA74BA7D301C2014496A11DE7
:1010A000B11D8DA79EA7AFA7B8ABD80112968D91A1
:1010B0009C911397DC01ED91FC910284F385E02D66
:1010C00009959C0197FDEBC2E98DFA8D8081918194
:1010D000820F931F91838083D4014D915C9147309F
:1010E0005105C9F4EF8DF8A180819181AC014F5F6A
:1010F0005F4F51834083F801E80FF91F248BD5011E
:101100008D919C91119701978D939C93892B69F6F2
:1011100088E090E033C04115510541F52F3F31057E
:1011200089F481E090E0D4018D939C932DA53EA598
:101130004FA558A9ABA5BCA52D933D934D935C93AA
:101140001397B3CF0E942114DC01CB0184199509B8
:10115000A609B7090697A105B10508F4A6CFF801BD
:10116000EE54FD4F10828EEF9FEFC1C2413051050A
:10117000A9F42E3F310531F482E090E0F40191832F
:10118000808393CFD4011D921C92E9A1FAA18081A2
:1011900081118BCFC8010E942D1487CF4230510599
:1011A00089F4D5012D933C93EF8DF8A11182108223
:1011B00083E090E0D4018D939C93E98DFA8D318387
:1011C000208373CF4330510569F4322F2227D50194
:1011D0008D919C911197280F391F2D933C9384E09A
:1011E00090E0CCCF4430510589F460E071E00E947A
:1011F00018188F3F910531F485E090E0D4018D936C
:101200009C9353CFF401118210824FCF453051058A
:1012100071F4AB8DBC8D2D933C9386E090E0F4018E
:1012200091838083A98DBA8D2D933C933ECF463018
:10123000510599F4322F2227EB8DFC8D808191810D
:10124000280F391F3183208387E090E0D4018D93EC
:101250009C93F5018081918159CF4830510509F067
:1012600024CFD4011D921C9260E071E00E941818F6
:101270008F3F910509F019CFEB8DFC8D8081918115
:10128000009709F03EC1C8010E942D1488E191E049
:101290009A8389831C821B828FEF91E09E838D83CA
:1012A00098878F839A8789871B861C861D861E8652
:1012B0006801FCEBCF1AFDEFDF0A78012AE8E21A99
:1012C0002DEFF20A2CE0222E21E0322ED601AD9035
:1012D000BC90A114B10409F474C01A8A198A388A1E
:1012E0002F861E8A1D8A86E990E00E94DD1A9C8B5B
:1012F0008B8BFC011082EB56FF4F1082D5011596A7
:101300008D919C9116979C838B836D917C91119705
:1013100012964C91CE010F960E94DB019E838D8325
:10132000D601ED91FC9183819481DC01ED91FC91DA
:101330000480F581E02D0995BC01CE010F960E9435
:10134000970198878F83D601ED91FC9183819481D9
:10135000DC01ED91FC910680F781E02D0995BC013F
:10136000CE010F960E9497019A87898728E131E084
:1013700040E050E02B873C874D875E87D601ED919A
:10138000FC9161857285D801ED91FC910190F0810D
:10139000E02DAE014F5F5F4FC801099589899A8999
:1013A0008130910519F469EC71E004C0029729F4C9
:1013B0006DED71E0C8010E943710CE010F960E94BA
:1013C0000606B2E0CB0ED11CEC14FD0409F07ECF72
:1013D0009CE0A92E91E0B92EF701C080D180C11404
:1013E000D10409F473C01A8A198AB88AAF861E8A92
:1013F0001D8A86E990E00E94DD1A9C8B8B8BDC01B4
:101400001C92FC01EB56FF4F1082F6018281938102
:101410009C838B83648175814681CE010F960E94E7
:10142000DB019E838D83D7018D919C91DC01ED9131
:10143000FC910480F581E02D0995BC01CE010F9649
:101440000E94970198878F83F70180819181DC0149
:10145000ED91FC910680F781E02D0995BC01CE014C
:101460000F960E9497019A87898728E131E040E032
:1014700050E02B873C874D875E87D801ED91FC912A
:10148000C080D180F70180819181DC01ED91FC91D8
:101490000280F381E02D0995AE014F5F5F4FBC01E3
:1014A000C801F601099589899A898130910519F455
:1014B00069EC71E004C0029729F46DED71E0C80198
:1014C0000E943710CE010F960E940606F2E0EF0E42
:1014D000F11C8E149F0409F07FCFF801EE54FD4FEC
:1014E00081E0808331964082518262827382AD8D29
:1014F000BE8D4D925D926D927C9213978FEF9FEF10
:10150000F6C08A30910509F0A1C080E391E09A838A
:1015100089831B821C821D821E821F821886198667
:101520001A860E942114F801C084D184E284F384D5
:101530009B01AC012C193D094E095F0969017A0133
:10154000B101CE0101960E944B03C701B60128EEFE
:1015500033E040E050E00E942C18CB80DC80ED802E
:10156000FE80C20ED31EE41EF51ECB82DC82ED820D
:10157000FE829B01AC0160E472E48FE090E00E9487
:101580000818CF80D884E984FA84DC01CB018C0D63
:101590009D1DAE1DBF1D8F839887A987BA870E94A6
:1015A0002114CF80D884E984FA8436E3D31A35E64F
:1015B000E30A34ECF30A28EE33E040E050E00E9406
:1015C0002C182BA33CA34DA35EA39B01AC0160E4AC
:1015D00072E48FE090E00E940818A7019601261B94
:1015E000370B480B590BCA01B901CB80DC80ED8069
:1015F000FE8031E0C31AD108E108F1082BA13CA11B
:101600004DA15EA1C21AD30AE40AF50A20E03AEC21
:101610004AE95BE30E942C18C20ED31EE41EF51E9D
:10162000D8011C96CD92DD92ED92FC921F97F801A5
:10163000608B718B828B938B0E942114AD8DBE8D3C
:101640006D937D938D939C9313972FCD8630910549
:1016500051F4B1018FA198A50E94150681E0E9A57A
:10166000FAA5808322CD8B30910521F4A9A1BAA1DE
:101670001C921BCDFC01E952FF4FEE0FFF1FE00F44
:10168000F11F80819181009709F40FCDDC01ED916C
:10169000FC910190F081E02DB101099506CDF80192
:1016A000EE54FD4F8081882301F17801BDE4EB1AEF
:1016B000BDEFFB0AF70180819181A281B381A30173
:1016C0009201281B390B4A0B5B0BDA01C901853CDF
:1016D0009940A105B10548F0C8010E942D14D70119
:1016E0004D925D926D927C92139780E090E0E0962F
:1016F0000FB6F894DEBF0FBECDBFDF91CF911F9123
:101700000F91FF90EF90DF90CF90BF90AF909F90A0
:101710008F907F906F905F904F903F902F900895A3
:101720004F925F926F927F92AF92BF92CF92DF9271
:10173000EF92FF920F931F93CF93DF93EC018B01F6
:101740008A81FB0180838B8181838C8182838D815F
:101750008383DB0140E050E0BA01E4E0F0E014965E
:10176000CA80DB80EC80FD80CF0104964C155D05BE
:101770006E057F05C8F42A853B85E20FF31F349779
:10178000D080F18032812381DC921196FC921197F6
:1017900012963C93129713962C931397FC014F5F6C
:1017A0005F4F6F4F7F4FDBCF5F01A00EB11E2C85C7
:1017B000F50120832D8521832E8522832F85238388
:1017C000D50140E050E0BA01CC84DD84EE84FF8492
:1017D0009C012C5F3F4F4C155D056E057F05F8F4AD
:1017E000CD018A199B09EC88FD888E0D9F1DFC0197
:1017F000D080E180F28083811496DC921497159654
:10180000EC9215971696FC92169717968C9317974D
:10181000C9014F5F5F4F6F4F7F4F1496D5CFF801CF
:10182000E80FF91F8E8980838F898183888D828359
:10183000898D83837901A12CB12C412C512C32014B
:101840008E899F89A88DB98D481659066A067B0630
:1018500080F5EC8DFD8DEA0DFB1DA081B181FD01B0
:1018600001900020E9F731976F01CA1ADB0AA6013F
:1018700060E070E0C8018E0D9F1D0E947301F4E0CE
:10188000EF0EF11CEC8DFD8DEA0DFB1D6081718169
:10189000A601C8018E0D9F1D0E94C91CEC0CFD1CE9
:1018A0008FEF481A580A680A780AE2E0AE0EB11CB7
:1018B000C7CFC701DF91CF911F910F91FF90EF909C
:1018C000DF90CF90BF90AF907F906F905F904F90E0
:1018D0000895EF92FF920F931F93CF93DF938C01A4
:1018E0007B01DC0112962C911297FB012193CF0111
:1018F0001396ED91FC911497EF0109900020E9F700
:101900002197CE1BDF0BAE0160E070E00E947301F7
:10191000D80113966D917C911497AE01C70105967D
:101920000E94C91CCE010596DF91CF911F910F91A6
:10193000FF90EF900895CF92DF92EF92FF920F9376
:101940001F93CF93DF937C018B01DC0112968C9166
:101950001297FB01808313968C91139781831496C1
:10196000ED91FC911597EF0109900020E9F721977F
:10197000CE1BDF0BAE0160E070E0C80102960E9452
:101980007301D70114966D917C911597AE01C80132
:1019900006960E94C91CCE010696F701A681B78162
:1019A000FD0101900020E9F731976F01CA1ADB0AA7
:1019B000A60160E070E0800F911F0E9473012A96DB
:1019C000D70116966D917C911797A601C8018C0FCF
:1019D0009D1F0E94C91CCC0DDD1DD7011896ED91ED
:1019E000FC911997DF010D900020E9F711976D0127
:1019F000CE1ADF0AA60160E070E0C8018C0F9D1FBF
:101A00000E9473012496F70160857185A601C801C3
:101A10008C0F9D1F0E94C91CC6018C0F9D1FD701F2
:101A20001A966C911A971B964C911B971C963C9199
:101A30001C971D962C91F801E80FF91F60834183D4
:101A4000328323830496DF91CF911F910F91FF90F2
:101A5000EF90DF90CF9008952F923F924F925F9238
:101A60006F927F928F929F92AF92BF92CF92DF92AE
:101A7000EF92FF920F931F93CF93DF93CDB7DEB713
:101A8000A2970FB6F894DEBF0FBECDBF6B017C01ED
:101A900080913C02882309F4D1C0A7019601C701B7
:101AA000B6010E94D81A882319F081EF91E01AC07C
:101AB00046015701E894B7F82FEF3FEF4FE75FE794
:101AC000C501B4010E94D81A81110FC02FEF3FEF5A
:101AD0004FE75FE7C501B4010E940E1918162CF4F8
:101AE00085EF91E00E942510A5C02FEF3FEF4FE753
:101AF0005FE4C701B6010E94661A18161CF489EF4C
:101B000091E0F0CF2FEF3FEF4FE75FECC701B60159
:101B10000E940E1987FDF3CF20E030E0A901C70134
:101B2000B6010E940E1987FF09C06DE289E492E0B8
:101B30000E94D40EF7FAF094F7F8F0942AE037ED0B
:101B400043EA5BE3C701B6010E94A2184B015C01A6
:101B50000E9485196B017C010E94B4199B01AC01A4
:101B6000C501B4010E94A1184B015C0119A28E01AC
:101B70000F5D1F4F0AA3612E2AE0222E312C412C2B
:101B8000512CC701B601A20191010E942C186901D4
:101B90007A01605DF80162938F01232B242B252BA2
:101BA00081F7CF010E9425106EE289E492E00E9445
:101BB000D40E83E0F82E9AE0292E312C412C512CA2
:101BC000FA94FF20B9F120E030E040E251E4C50191
:101BD000B4010E946B1A4B015C010E9485199B01A4
:101BE00040E050E019A20AA1162D762EC32ED42E65
:101BF000E52ECA01B901A20191010E942C18605D75
:101C0000F80162938F01211531054105510589F7CE
:101C1000CF010E942510672D7C2D8D2D9E2D0E94B9
:101C2000B4199B01AC01C501B4010E94A1184B017C
:101C30005C01C6CF8DEF91E00E942510A2960FB6F1
:101C4000F894DEBF0FBECDBFDF91CF911F910F91F2
:101C5000FF90EF90DF90CF90BF90AF909F908F90CC
:101C60007F906F905F904F903F902F9008952091BC
:101C70003C0221110C9425100895CF92DF92EF922F
:101C8000FF920F931F93CF93DF936C017A018B0127
:101C9000C0E0D0E0CE15DF0581F0D8016D918D0157
:101CA000D601ED91FC910190F081E02DC6010995DE
:101CB000892B11F02196EECF7E01C701DF91CF91E4
:101CC0001F910F91FF90EF90DF90CF9008950895AE
:101CD00080E090E00895FC01538D448D252F30E085
:101CE000842F90E0821B930B541710F0CF96089529
:101CF00001970895FC01918D828D981761F0828D76
:101D0000DF01A80FB11D5D968C91928D9F5F9F732F
:101D1000928F90E008958FEF9FEF0895FC01918DD1
:101D2000828D981731F0828DE80FF11D858D90E03E
:101D300008958FEF9FEF0895FC01918D228D892FDB
:101D400090E0805C9F4F821B91098F7399270895C3
:101D500089E492E00E949C0E21E0892B09F420E0A6
:101D6000822F0895FC01848DDF01A80FB11DA35AB5
:101D7000BF4F2C91848D90E001968F739927848FAB
:101D8000A689B7892C93A089B1898C9183708064CE
:101D90008C93938D848D981306C00288F389E02D6F
:101DA00080818F7D80830895EF92FF920F931F9320
:101DB000CF93DF93EC0181E0888F9B8D8C8D9813FE
:101DC00005C0E889F989808185FD26C0F62E0B8D36
:101DD00010E00F5F1F4F0F731127E02E8C8DE8125C
:101DE0000CC00FB607FCFACFE889F989808185FF1E
:101DF000F5CFCE010E94B20EF1CF8B8DFE01E80F20
:101E0000F11DE35AFF4FF0829FB7F8940B8FEA89D8
:101E1000FB89808180620AC09FB7F894EE89FF89B0
:101E20006083E889F98980818370806480839FBFA3
:101E300081E090E0DF91CF911F910F91FF90EF90A3
:101E40000895CF93DF93EC01888D8823C9F0EA8948
:101E5000FB89808185FD05C0A889B9898C9186FDA3
:101E60000FC00FB607FCF5CF808185FFF2CFA889A0
:101E7000B9898C9185FFEDCFCE010E94B20EE7CFDC
:101E8000DF91CF9108950E94C41C1F920F920FB64C
:101E90000F9211242F933F934F935F936F937F93F0
:101EA0008F939F93AF93BF93EF93FF9389E492E057
:101EB0000E94B20EFF91EF91BF91AF919F918F91D0
:101EC0007F916F915F914F913F912F910F900FBE36
:101ED0000F901F9018951F920F920FB60F9211241A
:101EE0002F938F939F93EF93FF93E0915902F0917B
:101EF0005A028081E0915F02F091600282FD12C07F
:101F00009081809162028F5F8F73209163028217AC
:101F100051F0E0916202F0E0E75BFD4F958F809316
:101F2000620201C08081FF91EF919F918F912F916B
:101F30000F900FBE0F901F9018953FB7F8948091A7
:101F4000F2059091F305A091F405B091F50526B541
:101F5000A89B05C02F3F19F00196A11DB11D3FBFE1
:101F6000BA2FA92F982F8827820F911DA11DB11D6F
:101F7000BC01CD0142E0660F771F881F991F4A956B
:101F8000D1F70895CF92DF92EF92FF92CF93DF9334
:101F9000EC016A017B01E889F98982E080834115BF
:101FA000514E61057105B1F060E079E08DE390E09C
:101FB000A70196010E942C18DA01C9010197A10915
:101FC000B109B695A795979587959C01211580E154
:101FD0003807A8F0E889F989108260E874E88EE192
:101FE00090E0A70196010E942C18DA01C90101971F
:101FF000A109B109B695A795979587959C01EC85A0
:10200000FD853083EE85FF852083188EEC89FD8960
:1020100086E08083EA89FB89808180618083EA8908
:10202000FB89808188608083EA89FB898081806860
:102030008083EA89FB8980818F7D8083DF91CF91C6
:10204000FF90EF90DF90CF900895009769F0FC012A
:1020500001900020E9F73197AF01481B590BBC01F3
:1020600089E492E00C943D0E80E090E00895CF93D7
:10207000DF9300D000D01F92CDB7DEB724E231E06D
:102080003A83298323E02B837D836C83DC01ED91EC
:10209000FC910190F081E02DAE014F5F5F4F67E052
:1020A00070E009950F900F900F900F900F90DF91B7
:1020B000CF9108951F920F920FB60F9211242F9374
:1020C0003F938F939F93AF93BF93EF93FF93809131
:1020D000F6059091F705A091F805B091F9050097E4
:1020E000A105B10591F030914602E0914402F091D2
:1020F0004502208123272083181619061A061B067D
:102100009CF40197A109B1090FC0209170002D7FA7
:102110002093700020914602E0914402F091450224
:1021200030812095232320838093F6059093F70533
:10213000A093F805B093F905FF91EF91BF91AF918E
:102140009F918F913F912F910F900FBE0F901F90F5
:1021500018951F920F920FB60F9211248F939F9391
:10216000AF93BF93EF93FF938091FA059091FB0596
:10217000A091FC05B091FD05892B8A2B8B2B51F189
:1021800090914302E0914102F091420280818927BF
:1021900080838091FA059091FB05A091FC05B09198
:1021A000FD05181619061A061B061CF58091FA057E
:1021B0009091FB05A091FC05B091FD050197A10947
:1021C000B1098093FA059093FB05A093FC05B093A9
:1021D000FD050FC080916F008D7F80936F0080910F
:1021E0004302E0914102F09142029081809589235F
:1021F0008083FF91EF91BF91AF919F918F910F904D
:102200000FBE0F901F9018951F920F920FB60F924E
:1022100011248F939F93AF93BF93EF93FF9380917C
:10222000FE059091FF05A0910006B0910106892B53
:102230008A2B8B2B51F190914002E0913E02F0915C
:102240003F028081892780838091FE059091FF0560
:10225000A0910006B0910106181619061A061B0671
:102260001CF58091FE059091FF05A0910006B091AC
:1022700001060197A109B1098093FE059093FF051E
:10228000A0930006B09301060FC080916E008D7F71
:1022900080936E0080914002E0913E02F0913F02F7
:1022A0009081809589238083FF91EF91BF91AF91B9
:1022B0009F918F910F900FBE0F901F90189590E0F7
:1022C000FC01E351FE4F2491FC01E752FE4F349193
:1022D000FC01EB53FE4FE491EE2309F43CC02223B2
:1022E00039F1233091F038F42130A9F0223001F592
:1022F00084B58F7D12C0273091F02830A1F02430B2
:10230000B9F4809180008F7D03C0809180008F7729
:10231000809380000DC084B58F7784BD09C0809103
:10232000B0008F7703C08091B0008F7D8093B000A4
:10233000F0E0EE0FFF1FE554FE4FA591B4919FB75B
:10234000F894611104C08C913095382302C0EC914F
:102350003E2B3C939FBF0895CF93DF9390E0FC0109
:10236000E752FE4F2491FC01EB53FE4F84918823EA
:1023700061F190E0880F991FFC01EF54FE4FC59169
:10238000D491FC01E554FE4FA591B491611109C0AF
:102390009FB7F8948881209582238883EC912E231F
:1023A0000BC0623061F49FB7F8948881322F30956A
:1023B00083238883EC912E2B2C939FBF06C08FB76D
:1023C000F894E8812E2B28838FBFDF91CF91089559
:1023D0008F929F92AF92BF92CF92DF92EF92FF9235
:1023E000CF934C0161E0809147020E94AC11C091F3
:1023F00048028C2F8D7FA12CB12C09F098C060E091
:1024000072E18AE790E0A50194010E944E186901EB
:102410007A01BA01A90141505109610971094F3F7F
:1024200051056105710509F008F445C060E472E4E6
:102430008FE090E0A50194010E944E18BA01A90115
:102440004150510961097109C230E9F44F3F51050A
:102450006105710509F008F4DAC060E970ED83E008
:1024600090E0A50194010E944E18BA01A9014150C3
:102470005109610971094F3F51056105710509F065
:1024800020F583E04DC04F3F510561057105A9F06E
:10249000A0F068E478EE81E090E0A50194010E944C
:1024A0004E18BA01A9014150510961097109CC23A3
:1024B00009F4AFC004C181E001C082E0C11130C0A5
:1024C00095B5987F892B85BD66C068E478EE81E07C
:1024D00090E0A50194010E944E18BA01A901415053
:1024E0005109610971094F3F51056105710509F0F5
:1024F00008F48BC064E274EF80E090E0A5019401E1
:102500000E944E18BA01A90141505109610971098F
:102510004F3F51056105710511F008F0A9C085E034
:102520009091B100987F892B8093B1002EC060E01C
:1025300072E18AE790E0A50194010E944E18BA0169
:10254000A90141505109610971094115510581E005
:102550006807710580F068E478EE81E090E0A501FD
:1025600094010E944E18BA01A90141505109610914
:10257000710983E001C081E0C13039F4909181009C
:10258000987F892B8093810018C0C130B1F0C23090
:1025900049F1C1119CC047BD8FEF9FEFDC018093D3
:1025A000FE059093FF05A0930006B093010680916D
:1025B0006E00826080936E008AC0509389004093C1
:1025C00088008FEF9FEFDC018093FA059093FB0565
:1025D000A093FC05B093FD0580916F00826080930D
:1025E0006F0075C04093B3008FEF9FEFDC018093C5
:1025F000F6059093F705A093F805B093F90580913F
:10260000700082608093700062C084E089CF82E0B5
:1026100087CF4F3F51056105710541F138F162E106
:102620007AE780E090E0A50194010E944E18BA017B
:10263000A90141505109610971094F3F51056105D7
:10264000710591F088F0D701C6013AE0B595A795DC
:10265000979587953A95D1F7AC01BD014150510945
:102660006109710985E02CCF84E02ACF83E028CF6F
:1026700062E17AE780E090E0A50194010E944E18A3
:10268000BA01A90141505109610971094F3F510532
:102690006105710591F088F0D701C6012AE0B59572
:1026A000A795979587952A95D1F7AC01BD01415023
:1026B00051096109710987E033CF86E031CF4F3F7F
:1026C00051056105710509F098F684E0F7CECF91C8
:1026D000FF90EF90DF90CF90BF90AF909F908F9042
:1026E00008951F93CF93DF93182FEB0161E00E94B1
:1026F000AC11209711F460E004C0CF3FD10539F44C
:1027000061E0812FDF91CF911F910C945F11E12F38
:10271000F0E0E351FE4FE491E330F9F048F4E130AA
:10272000B9F0E230A1F584B5806284BDC8BD34C083
:10273000E730E9F0E83019F1E43049F580918000A4
:10274000806280938000D0938B00C0938A0024C065
:1027500084B5806884BDC7BD1FC08091800080683B
:1027600080938000D0938900C093880015C0809129
:10277000B00080688093B000C093B3000DC080911A
:10278000B00080628093B000C093B40005C0C03830
:10279000D1050CF0B5CFAFCFDF91CF911F91089548
:1027A0008E3008F08E508770806480937C0080911A
:1027B0007A00806480937A0080917A0086FDFCCF55
:1027C000809178002091790090E0922B08958F926B
:1027D0009F92AF92BF92CF92DF92EF92FF926B01E6
:1027E0007C010E949D0F4B015C01C114D104E104E6
:1027F000F104F1F00E949D0FDC01CB0188199909C9
:10280000AA09BB09883E9340A105B10570F321E0F8
:10281000C21AD108E108F10888EE880E83E0981EFC
:10282000A11CB11CC114D104E104F10419F7DDCFDE
:10283000FF90EF90DF90CF90BF90AF909F908F90E0
:1028400008952FB7F8946091EE057091EF0580918F
:10285000F0059091F1052FBF08950F931F93CF932B
:10286000DF93CDB7DEB72A970FB6F894DEBF0FBE61
:10287000CDBF8C0180E391E09A8389831B821C8207
:102880001D821E821F82188619861A86D801ED9134
:10289000FC910190F081E02DAE014F5F5F4F6AE047
:1028A00070E0C80109950E942114F80160877187C2
:1028B000828793872A960FB6F894DEBF0FBECDBFEE
:1028C000DF91CF911F910F9108951F920F920FB634
:1028D0000F9211242F933F938F939F93AF93BF93A6
:1028E0008091EE059091EF05A091F005B091F10572
:1028F0003091ED0523E0230F2D3720F40196A11D23
:10290000B11D05C026E8230F0296A11DB11D20931D
:10291000ED058093EE059093EF05A093F005B0933D
:10292000F1058091F2059091F305A091F405B09125
:10293000F5050196A11DB11D8093F2059093F30555
:10294000A093F405B093F505BF91AF919F918F913E
:102950003F912F910F900FBE0F901F901895789474
:1029600084B5826084BD84B5816084BD85B5826094
:1029700085BD85B5816085BD80916E008160809345
:102980006E001092810080918100826080938100AE
:1029900080918100816080938100809180008160BE
:1029A000809380008091B10084608093B100809119
:1029B000B00081608093B00080917A008460809341
:1029C0007A0080917A00826080937A0080917A0008
:1029D000816080937A0080917A00806880937A0089
:1029E0001092C10040E855E260E070E089E492E0B6
:1029F0000E94C20F61E088E00E94AC1161E08DE0AE
:102A00000E94AC1161E08AE00E94AC1161E08BE0B1
:102A10000E94AC1161E08AE00E94AC1161E08BE0A1
:102A20000E94AC1160E088E00E945F1160E08DE0E0
:102A30000E945F1160E089E00E945F1160E08CE01D
:102A40000E945F1160E070E08AE00E94711360E014
:102A500070E08BE00E9471134091130350911403B6
:102A600060911503709116038091110390911203E8
:102A70000E94C20F1092B8051092B7051092BA05C5
:102A80001092B9051092BE051092BD051092BC05BA
:102A90001092BB05E5E8F5E080E090E021913191EE
:102AA000232B81F4FC01EE0FFF1FEB57FA4F26EEAC
:102AB00032E0318320838C599F4F9093E9028093B9
:102AC000E80204C001968931910541F760E08EE08B
:102AD0000E94AC1160E08FE00E94AC1110923C02A9
:102AE00080913D02833008F083C095E090934702C7
:102AF000E82FF0E0E255FE4FE491E09348028F5F4B
:102B000080933D02E13009F44CC050F1E23009F00D
:102B100072C01092B0001092B1008091B00082603B
:102B20008093B0008091B10081608093B10080916A
:102B3000470290E0FC01EB53FE4FE491F0E0EE0F12
:102B4000FF1FE554FE4F25913491309345022093A9
:102B50004402FC01E752FE4FE491E09346024BC071
:102B600014BC15BC84B5826084BD85B5816085BD0B
:102B70008091470290E0FC01EB53FE4FE491F0E0BE
:102B8000EE0FFF1FE554FE4F2591349130933F0225
:102B900020933E02FC01E752FE4FE491E093400295
:102BA0002AC010928000109281008091810088607C
:102BB0008093810080918100816080938100809169
:102BC000470290E0FC01EB53FE4FE491F0E0EE0F82
:102BD000FF1FE554FE4F259134913093420220931C
:102BE0004102FC01E752FE4FE491E093430203C02F
:102BF0008FEF809348028091480287FD04C086E0F1
:102C000091E00E94E81160E971E080E090E00E94AC
:102C1000E7138091480287FD04C088E891E00E9494
:102C2000E81160E971E080E090E00E94E713809194
:102C3000480287FD04C08BE092E00E94E81160E248
:102C400073E080E090E00E94E713809148028130B9
:102C500051F0823071F0811111C080916E008D7F32
:102C600080936E000BC080916F008D7F80936F000A
:102C700005C0809170008D7F8093700060E080912E
:102C800047020E945F118FE093E00E94D007CAE0E4
:102C9000D0E0C12CD12C76018FE00E94D013BC0172
:102CA000990F880B990B0E94B6199B01AC01C701C3
:102CB000B6010E94A2186B017C01219769F720E000
:102CC00030E040E251E40E94131921EE3AE740EA75
:102CD00050E40E946B1A20E030E040E85AE30E9482
:102CE0006B1A25E33EE540E551E40E946B1A25EDA1
:102CF00038E741E450E40E9413196B017C0120E0A5
:102D000030E040EE50E40E940E1987FF14C080E0CE
:102D100092E00E94370EC701B6010E942C0D8091EF
:102D20003C02882341F08FEF91E00E9425108DEF47
:102D300091E00E94251020E030E040E051E4C7011E
:102D4000B6010E94661A87FD08C08EE092E00E94DC
:102D5000370EC701B6010E942C0DCAE0D0E0C12C8D
:102D6000D12C76018EE00E94D013BC01990F880B04
:102D7000990B0E94B6199B01AC01C701B6010E94D4
:102D8000A2186B017C01219769F720E030E040E256
:102D900051E40E94131921EE3AE740EA50E40E9400
:102DA0006B1A20E030E040E85AE30E946B1A20EBF7
:102DB00032E746E552E40E946B1A21E835E943ED1B
:102DC00050E40E9413196B017C0120E030E040E2E6
:102DD00050E40E940E1987FF14C08DE192E00E941A
:102DE000370EC701B6010E942C0D80913C0288234A
:102DF00041F08FEF91E00E9425108DEF91E00E944D
:102E0000251064E170E080E090E00E94E7130E94EA
:102E10002C0139CF10924C0210924B0288EE93E0B5
:102E2000A0E0B0E080934D0290934E02A0934F0239
:102E3000B09350028CE391E090934A028093490250
:102E400085EC90E0909356028093550284EC90E0DC
:102E5000909358028093570280EC90E090935A022E
:102E60008093590281EC90E090935C0280935B0226
:102E700082EC90E090935E0280935D0286EC90E09D
:102E80009093600280935F0210926202109263023C
:102E900010926402109265028EE791E09093100305
:102EA00080930F0389E492E09093120380931103BF
:102EB00080E091EEA0E0B0E08093130390931403C0
:102EC000A0931503B09316031092C10586E691E016
:102ED0009093D0058093CF051092D1051092D20522
:102EE0001092D3051092D4051092DA051092D905EC
:102EF0001092DB051092DC051092DD051092DE05C4
:102F00001092E4051092E3051092E5051092E60593
:102F10001092E7051092E8051092EC051092EB056F
:102F200083E595E0E5E8F5E0DC011D921D92EA17E6
:102F3000FB07D9F727EB35E0119211922E173F07C7
:102F4000D9F7A3E2B3E0EBE3F4E01D92EA17FB0745
:102F5000E1F711928E179F07E1F788E891E09093CF
:102F6000E7028093E6028AE591E09093EE02809377
:102F7000ED028EE491E09093F0028093EF021092C4
:102F8000F1021092F2021092F3021092F4021092E7
:102F9000F5021092F6021092F7021092F8021092C7
:102FA000F9021092FA021092FB021092FC02909326
:102FB000FE028093FD021092FF0210920003109215
:102FC0000103109202031092030310920403109263
:102FD0000503109206031092070310920803109243
:102FE000090310920A0380E991E090930C03809307
:102FF0000B0381E090E090930E0380930D0384E334
:1030000092E09093EB028093EA021092EC02089512
:10301000DB018F939F930E946D18BF91AF91A29F88
:10302000800D911DA39F900DB29F900D11240895C6
:1030300097FB072E16F4009407D077FD09D00E9465
:10304000781807FC05D03EF4909581959F4F089520
:10305000709561957F4F0895A1E21A2EAA1BBB1BA4
:10306000FD010DC0AA1FBB1FEE1FFF1FA217B30754
:10307000E407F50720F0A21BB30BE40BF50B661F6A
:10308000771F881F991F1A9469F76095709580952E
:1030900090959B01AC01BD01CF010895052E97FBD2
:1030A0001EF400940E94651857FD07D00E942C184A
:1030B00007FC03D04EF40C9465185095409530955C
:1030C00021953F4F4F4F5F4F089590958095709594
:1030D00061957F4F8F4F9F4F08950E949218A59F33
:1030E000900DB49F900DA49F800D911D1124089503
:1030F000AA1BBB1B51E107C0AA1FBB1FA617B7071E
:1031000010F0A61BB70B881F991F5A95A9F7809539
:103110009095BC01CD010895EE0FFF1F0590F4912D
:10312000E02D0994A29FB001B39FC001A39F700D31
:10313000811D1124911DB29F700D811D1124911DBF
:1031400008955058BB27AA270E94B9180C942C1A2E
:103150000E941E1A38F00E94251A20F039F49F3F71
:1031600019F426F40C941B1A0EF4E095E7FB0C946A
:10317000151AE92F0E943D1A58F3BA176207730710
:103180008407950720F079F4A6F50C945F1A0EF4E5
:10319000E0950B2EBA2FA02D0B01B90190010C0167
:1031A000CA01A0011124FF27591B99F0593F50F47F
:1031B000503E68F11A16F040A22F232F342F4427D7
:1031C000585FF3CF469537952795A795F0405395CF
:1031D000C9F77EF41F16BA0B620B730B840BBAF09F
:1031E0009150A1F0FF0FBB1F661F771F881FC2F70A
:1031F0000EC0BA0F621F731F841F48F4879577951E
:103200006795B795F7959E3F08F0B0CF9395880FD7
:1032100008F09927EE0F9795879508950E94F11968
:1032200008F481E008950E9427190C942C1A0E943A
:10323000251A58F00E941E1A40F029F45F3F29F029
:103240000C94151A51110C94601A0C941B1A0E94BC
:103250003D1A68F39923B1F3552391F3951B550B50
:10326000BB27AA2762177307840738F09F5F5F4F59
:10327000220F331F441FAA1FA9F335D00E2E3AF098
:10328000E0E832D091505040E695001CCAF72BD0B0
:10329000FE2F29D0660F771F881FBB1F2617370701
:1032A0004807AB07B0E809F0BB0B802DBF01FF2733
:1032B00093585F4F3AF09E3F510578F00C94151AE1
:1032C0000C94601A5F3FE4F3983ED4F386957795AB
:1032D0006795B795F7959F5FC9F7880F911D9695EC
:1032E000879597F90895E1E0660F771F881FBB1F48
:1032F000621773078407BA0720F0621B730B840BF5
:10330000BA0BEE1F88F7E09508950E94451A88F0E1
:103310009F5798F0B92F9927B751B0F0E1F0660F99
:10332000771F881F991F1AF0BA95C9F714C0B130DA
:1033300091F00E945F1AB1E008950C945F1A672F14
:10334000782F8827B85F39F0B93FCCF38695779509
:103350006795B395D9F73EF49095809570956195F2
:103360007F4F8F4F9F4F0895E89409C097FB3EF41D
:1033700090958095709561957F4F8F4F9F4F9923C2
:10338000A9F0F92F96E9BB279395F6958795779540
:103390006795B795F111F8CFFAF4BB0F11F460FF00
:1033A0001BC06F5F7F4F8F4F9F4F16C0882311F058
:1033B00096E911C0772321F09EE8872F762F05C06C
:1033C000662371F096E8862F70E060E02AF09A9507
:1033D000660F771F881FDAF7880F9695879597F9FC
:1033E0000895990F0008550FAA0BE0E8FEEF161696
:1033F0001706E807F907C0F012161306E407F507E9
:1034000098F0621B730B840B950B39F40A2661F05C
:10341000232B242B252B21F408950A2609F4A140FF
:10342000A6958FEF811D811D089597F99F6780E80C
:1034300070E060E008959FEF80EC089500240A9406
:103440001616170618060906089500240A9412167F
:103450001306140605060895092E0394000C11F4B2
:10346000882352F0BB0F40F4BF2B11F460FF04C05F
:103470006F5F7F4F8F4F9F4F089557FD9058440FB8
:10348000551F59F05F3F71F04795880F97FB991FC3
:1034900061F09F3F79F08795089512161306140680
:1034A000551FF2CF4695F1DF08C01616170618060D
:1034B000991FF1CF86957105610508940895E894E8
:1034C000BB2766277727CB0197F908950E94F1194A
:1034D00008F48FEF08950E947E1A0C942C1A0E9413
:1034E0001E1A38F00E94251A20F0952311F00C9432
:1034F000151A0C941B1A11240C94601A0E943D1A80
:1035000070F3959FC1F3950F50E0551F629FF00136
:10351000729FBB27F00DB11D639FAA27F00DB11D4F
:10352000AA1F649F6627B00DA11D661F829F2227D8
:10353000B00DA11D621F739FB00DA11D621F839F5F
:10354000A00D611D221F749F3327A00D611D231F35
:10355000849F600D211D822F762F6A2F11249F5783
:1035600050409AF0F1F088234AF0EE0FFF1FBB1F86
:10357000661F771F881F91505040A9F79E3F510545
:1035800080F00C94151A0C94601A5F3FE4F3983E97
:10359000D4F3869577956795B795F795E7959F5FEF
:1035A000C1F7FE2B880F911D9695879597F9089581
:1035B0000E94F119880B990B08950F931F93CF93D5
:1035C000DF938230910510F482E090E0E0910406F0
:1035D000F091050620E030E0A0E0B0E0309719F16E
:1035E000408151810281138148175907C8F084171F
:1035F000950769F4109731F012960C931297139671
:103600001C9327C0009304061093050622C02115C1
:10361000310519F04217530718F49A01BD01EF0163
:10362000DF01F801DBCF21153105F9F0281B390B3B
:103630002430310580F48A819B816115710521F068
:10364000FB019383828304C0909305068093040654
:10365000FE01329644C0FE01E20FF31F8193919365
:1036600022503109398328833AC0209102063091D3
:103670000306232B41F42091020130910301309382
:1036800003062093020620910001309101012115CB
:10369000310541F42DB73EB7409104015091050129
:1036A000241B350BE0910206F0910306E217F307A5
:1036B000A0F42E1B3F0B2817390778F0AC014E5FA2
:1036C0005F4F2417350748F04E0F5F1F50930306D6
:1036D000409302068193919302C0E0E0F0E0CF01B5
:1036E000DF91CF911F910F910895CF93DF930097B2
:1036F00009F481C0FC01329713821282A091040662
:10370000B0910506109781F420813181820F931FBB
:1037100020910206309103062817390751F5F093DE
:103720000306E093020667C0ED0120E030E0CE170B
:10373000DF0740F44A815B819E0141155105F1F09C
:10374000EA01F5CFD383C28340815181840F951F55
:10375000C817D90759F488819981840F951F02965B
:10376000918380838A819B81938382832115310594
:1037700029F4F0930506E09304063DC0E901FB83BC
:10378000EA8349915991C40FD51FEC17FD0761F4E5
:1037900080819181840F951F0296E9019983888326
:1037A000828193819B838A83E0E0F0E012968D9181
:1037B0009C911397009719F0FD01DC01F7CF8D91D3
:1037C0009C9111979D012E5F3F4F820F931F209177
:1037D0000206309103062817390769F4309729F457
:1037E000109205061092040602C013821282B09352
:1037F0000306A0930206DF91CF910895A0E0B0E008
:10380000E4E0FCE10C94D61CEC01009721F4CB0120
:103810000E94DD1AB4C0FC01E60FF71F9C01225084
:103820003109E217F30708F4A8C0D9010D911C91E2
:10383000119706171707B0F00530110508F49BC063
:10384000C80104978617970708F495C0025011091C
:10385000061B170B019311936D937C93CF010E946C
:10386000751B89C05B01A01AB10A4C01800E911E24
:10387000A0910406B0910506612C712CE12CF12C6D
:10388000109709F446C08D919C911197A815B90520
:10389000B1F56C0142E0C40ED11CCA14DB0478F10E
:1038A0004C018A189B08640142E0C40ED11C129698
:1038B000BC9012971396AC91B5E0CB16D10440F0B2
:1038C000B282A38391828082D9016D937C9309C0D7
:1038D0000E5F1F4F800F911FF90191838083EB2DA5
:1038E000FA2FE114F10431F0D7011396FC93EE9313
:1038F000129741C0F0930506E09304063CC0681699
:10390000790608F43C017D0112960D90BC91A02D22
:10391000B7CF809102069091030688169906E1F4CC
:1039200066167706C8F48091000190910101009716
:1039300041F48DB79EB74091040150910501841B5D
:10394000950BE817F907C8F4F0930306E093020615
:10395000F901718360830FC0CB010E94DD1A7C01E5
:10396000009759F0A801BE010E94C91CCE010E9417
:10397000751BC70104C0CE0102C080E090E0CDB746
:10398000DEB7EEE00C94F21C81E090E0F8940C9429
:10399000091DFB01DC0102C001900D924150504015
:1039A000D8F708952F923F924F925F926F927F9235
:1039B0008F929F92AF92BF92CF92DF92EF92FF923F
:1039C0000F931F93CF93DF93CDB7DEB7CA1BDB0BEB
:1039D0000FB6F894DEBF0FBECDBF09942A88398890
:1039E00048885F846E847D848C849B84AA84B98497
:1039F000C884DF80EE80FD800C811B81AA81B981A3
:103A0000CE0FD11D0FB6F894DEBF0FBECDBFED01B6
:063A10000895F894FFCFB9
:103A1600000006062000000000000000DB0106068C
:103A26000B06D901000000009B0C570254025102FC
:103A360000000000690CFB01F801F5010000000020
:103A460091034B034803450300000000D40E3D0ECE
:103A56006B0E210F9C0E7A0E8E0E000000003405B0
:103A66005D049401910100000000640587043E0195
:103A76003B0100000000900B1506F201EF0100006B
:103A86000000430F430F430F430F00000000800563
:103A9600D007360100000000A30441013E013B01AE
:103AA6004D6573736167652066726F6D2064657618
:103AB6006963652064726F707065643A206D657322
:103AC60073616765206C6172676572207468616EE8
:103AD600206275666665722E00466C617368207298
:103AE600656164206E6F7420696D706C0042756646
:103AF600666572206F766572666C6F772070756288
:103B0600006E616E00696E66006F7666000D0A00D3
:103B160042617474657279206C6F773A2000426155
:103B260074746572792046756C6C3A20004368613E
:103B36007267657220446973636F6E6E6563746540
:0C3B4600643A2000636D645F76656C00DB
:00000001FF
