:100000000C9438010C9460010C9460010C94600114
:100010000C9460010C9460010C9460010C94DB144E
:100020000C9460010C9460010C9460010C946001CC
:100030000C9460010C9460010C9460010C946001BC
:100040000C94FC160C9460010C947B120C945512C9
:100050000C9460010C9460010C9460010C9460019C
:100060000C9460010C9460017374645F6D7367732A
:100070002F54696D650063643731363663373463F6
:1000800035353263333131666263633266653561BB
:1000900037626332383900726F7373657269616CED
:1000A0005F6D7367732F546F706963496E666F007D
:1000B00030616435316638386663343438393266D5
:1000C00038633130363834303737363436303035BF
:1000D00000726F7373657269616C5F6D7367732F04
:1000E0004C6F6700313161626437333163323539C7
:1000F00033333236316364363138336264313264DB
:100100003632393500726F7373657269616C5F6D79
:100110007367732F52657175657374506172616D89
:1001200000396630653938626461363539383139BD
:1001300038366464663533616661376134306534FE
:10014000390067656F6D657472795F6D7367732FC2
:10015000566563746F7233003461383432623635F9
:10016000663431333038346463326231306662343D
:1001700038346561376631370067656F6D65747255
:10018000795F6D7367732F547769737400396631C3
:10019000393566383831323436666466613237391B
:1001A0003864316433656562636138346100737447
:1001B000645F6D7367732F486561646572003231E7
:1001C00037366465636165636263653738616263AE
:1001D000336239366566303439666162656400734E
:1001E000656E736F725F6D7367732F52616E6765B3
:1001F000006330303563333432373364633432363E
:1002000063363761303230613837626332343134CB
:10021000380000000008000201000003040700008D
:1002200000000000000000000000240027002A0059
:100230000000000023002600290000000000250027
:1002400028002B0004040404040404040202020233
:100250000202030303030303010204081020408089
:100260000102040810200102040810205617461746
:1002700011241FBECFEFD8E0DEBFCDBF29E0A0EB39
:10028000B2E001C01D92A338B207E1F712E0A0E08E
:10029000B1E0E4E6F1E402C005900D92A03BB107A5
:1002A000D9F711E0C7E3D1E004C02197FE010E9415
:1002B0008B1DC633D107C9F70E9431180C94A520B5
:1002C0000C9400008E549D4FFC0180810895CF93C3
:1002D000DF93DC0116968D919C911797FB01169682
:1002E0002D913C91179725393105ECF444911496E2
:1002F0006D917C911597EB01C20FD31F4883169621
:100300002D913C91179731961496CD91DC911597CC
:10031000C20FD31F48812F5F3F4F17963C932E93F8
:1003200016974111DCCF16962D913C9117972539E0
:10033000310534F022E030E019963C932E93189763
:1003400014962D913C911597820F931FDF91CF91B9
:1003500008950C94670141110C946701CB01089535
:10036000CB0108950895442341F021E030E0FC01E1
:100370003383228386E191E00895CB01089581E2E1
:1003800091E0089585E091E0089584EE90E008956D
:1003900081ED90E0089580EB90E0089587E990E08A
:1003A000089586E790E0089588E690E00895FC01BE
:1003B000DB014C9150E060E070E042835383648342
:1003C000758311968C911197582B428353836483C4
:1003D000758312968C911297682B428353836483A2
:1003E000758313968C911397782B42835383648380
:1003F000758314964C91149750E060E070E046834A
:1004000057836087718715968C911597582B468373
:1004100057836087718716968C911697682B468351
:1004200057836087718717968C91782B4683578303
:100430006087718788E090E00895DC01FB011296E7
:100440008C911297808313968C91139781831496C5
:100450008C911497828315968C91159783831696A9
:100460008C911697848317968C911797858318968D
:100470008C911897868319968C91878388E090E0F9
:100480000895AF92BF92CF92DF92EF92FF920F93B7
:100490001F93CF93DF93643671053CF0FC01EE545B
:1004A000FD4F2081222309F462C0DA016B01EC01C7
:1004B000BC016D5C7E4FED91FC910190F081E02DCF
:1004C000CA0109958C017E0124EDE21A2EEFF20A91
:1004D0002FEFD7012C93FE01E35DFE4F2EEF20831B
:1004E00031968083319690833196980F90959083C2
:1004F0003196C0821696DC9245E050E020E030E074
:10050000C80107964817590730F46191260F311D2D
:100510004F5F5F4FF7CF085F1F4F8C0F9D1FFC0190
:10052000E45DFE4F209520830931B1E01B07A8F45C
:1005300068015701C5018E199F0980179107CCF4F6
:100540008A819B81F50161915F01DC01ED91FC9154
:100550000190F081E02D0995EDCF66E971E0CE01C3
:100560000E946D13CC24CA94DD24DA9402C0C12CFD
:10057000D12CC601DF91CF911F910F91FF90EF9089
:10058000DF90CF90BF90AF9008950C94411FFC0175
:10059000848195810C94411FCF93DF93EC010E94DD
:1005A000C702CE01DF91CF910C94411F8F929F9291
:1005B000AF92BF92CF92DF92EF92FF920F931F9371
:1005C000FC01DB01C380C294C69427E0C2228C2CBC
:1005D000912CA12CB12C8D929D92AD92BC9213972F
:1005E000048110E020E030E043E0000F111F221FE3
:1005F000331F4A95D1F768017901C828D928EA281C
:10060000FB28CD92DD92ED92FC921397458150E04C
:1006100060E070E01BE0440F551F661F771F1A95BE
:10062000D1F78A019B010C291D292E293F290D9301
:100630001D932D933C93139746814F7050E060E0DB
:1006400070E083E1440F551F661F771F8A95D1F72D
:10065000402B512B622B732B4D935D936D937C93A9
:100660001397868182958F7007810F7710E020E0C5
:1006700030E094E0000F111F221F331F9A95D1F72D
:10068000082B0115110521053105A1F00058134073
:100690002109310997E1000F111F221F331F9A957D
:1006A000D1F7042B152B262B372B0D931D932D9350
:1006B0003C9313974781407850E060E070E0742FDE
:1006C0006627552744270D911D912D913C91139735
:1006D000402B512B622B732B4D935D936D937C9329
:1006E000139788E090E01F910F91FF90EF90DF90BB
:1006F000CF90BF90AF909F908F9008958F929F92D0
:10070000AF92BF92CF92DF92EF92FF92CF93DF939F
:10071000EC014A015B01DB01CA0157E1B595A795E0
:10072000979587955A95D1F79927AA27BB270097C0
:10073000A105B10521F080589C4FAF4FBF4F1882E3
:1007400019821A82B501A40125E0440F551F661FC6
:10075000771F2A95D1F74B83B501A40133E0759536
:100760006795579547953A95D1F74C83B501A40104
:10077000EBE07595679557954795EA95D1F74D83C9
:10078000B501A401F3E17595679557954795FA95DD
:10079000D1F7242F2F70AC01BD0134E0440F551F59
:1007A000661F771F3A95D1F7422B4E836C017D016E
:1007B00044E0F594E794D794C7944A95D1F720E0A4
:1007C00030E0A901C501B4010E94BC1B87FD02C035
:1007D000CF8203C08C2D80688F8388E090E0DF910A
:1007E000CF91FF90EF90DF90CF90BF90AF909F9010
:1007F0008F900895CF92DF92EF92FF92FC011082CA
:10080000118212821382DB0120E030E04D9150E032
:10081000022E02C0440F551F0A94E2F7052E000C69
:10082000660B770BC080D180E280F3804C295D2974
:100830006E297F294083518362837383285F3F4FF2
:100840002032310519F7FF90EF90DF90CF90089597
:100850002F923F924F925F926F927F928F929F92D0
:10086000AF92BF92CF92DF92EF92FF920F931F93BE
:10087000CF93DF93CDB7DEB760970FB6F894DEBFA6
:100880000FBECDBF8C016B01DB018D909D90AD90B3
:10089000BC90FC0182819381A481B5818815990562
:1008A000AA05BB0570F4B401660F771F660F771FAA
:1008B000828593850E94CA1FD8011B969C938E93B4
:1008C0001A97F80182829382A482B5829601812CC4
:1008D000912C540144E050E0B8016A5F7F4F2C5FD7
:1008E0003F4FF80182819381A481B581FA0134964A
:1008F0001F0188169906AA06BB0650F5D901119664
:10090000FC90119712968C9190E0A0E0B0E0DC0191
:10091000992788279F29F901F0808F29F380BF2923
:10092000F80186839783A087B187DA01A101149724
:1009300082859385A80FB91F84E0FB0101900D9279
:100940008A95E1F7FFEF8F1A9F0AAF0ABF0AC7CF58
:100950004601840E951ED4018C9111969C9111979D
:1009600012964C901297512C612C712C3201552407
:100970004424592A482A13968C91782A5F01F80159
:1009800084859585A685B78584159505A605B70543
:1009900070F4B201660F771F660F771F84899589FF
:1009A0000E94CA1FD80155969C938E935497F801C4
:1009B0004486558666867786C401412C512C3201C7
:1009C0009801205F3F4FD8011C964D915D916D912C
:1009D0007C911F97F50134964416550666067706F6
:1009E00098F5DC011596FC90159716964C91169784
:1009F00050E060E070E0BA01552744275F29149663
:100A0000FC9014974F291796FC907F29D801509697
:100A10004D935D936D937C9353975F01AC0148199F
:100A2000590954960D90BC91A02DA40FB51F44E018
:100A3000F90101900D924A95E1F7BFEF4B1A5B0A5D
:100A40006B0A7B0A0496BFCFD601AA0DBB1D8C9101
:100A500011969C91119712968C901297912CA12C23
:100A6000B12C540199248824992A882A13968C91B0
:100A7000B82A7F01F80186899789A08DB18D8815E4
:100A80009905AA05BB0560F4B401660F771F848D34
:100A9000958D0E94CA1FD8015D969C938E935C979A
:100AA000F801868A978AA08EB18E212C312C812C58
:100AB000912C54019801265E3F4F3A872987F8010F
:100AC00086899789A08DB18D88169906AA06BB06DE
:100AD00008F05FC0B6016E0D7F1DCE0101960E9429
:100AE000FA0397012C5F3F4F388B2F8749815A813A
:100AF0006B817C81C901330FAA0BBB0B2C013D011B
:100B0000440E551E661E771E4B865C866D867E865D
:100B100023E0E20EF11CF601EE0DFF1D2F85388952
:100B2000C901A0E0B0E04B845C846D847E848415B0
:100B30009505A605B70528F4A181A1932F5F3F4F26
:100B4000EFCF6F847888460D571DF601E40FF51F2F
:100B500031971082C30101978C0D9D1DD8015B96C2
:100B60009C938E935A977A015C96ED91FC915D97D8
:100B7000E20DF31DA985BA858D919C9191838083A7
:100B8000BFEF8B1A9B0AAB0ABB0AE2E02E0E311CA8
:100B900096CFC70160960FB6F894DEBF0FBECDBFEB
:100BA000DF91CF911F910F91FF90EF90DF90CF9049
:100BB000BF90AF909F908F907F906F905F904F907D
:100BC0003F902F9008952F923F924F925F926F9295
:100BD0007F928F929F92AF92BF92CF92DF92EF92CD
:100BE000FF920F931F93CF93DF93CDB7DEB7E097BC
:100BF0000FB6F894DEBF0FBECDBF8C010E94261643
:100C00002B013C01980129543D4F3E8F2D8FF90156
:100C100080819181A281B381A3019201281B390BAC
:100C20004A0B5B0BDA01C901893F9A42A105B10564
:100C300010F035971082480148E5841A4DEF940A68
:100C4000D4018D919C91892B79F0F801E554FD4FE9
:100C500080819181A281B38184159505A605B70590
:100C600018F4F40111821082980120553D4F3A8FFB
:100C7000298FA80144555D4F5C8F4B8F180154E1BB
:100C8000250E311CC8018E549D4F9AA389A3D8010B
:100C9000A054BD4FB8A7AFA3F801E154FD4FFAA788
:100CA000E9A75801F6E5AF1AFDEFBF0A2250310956
:100CB00038A32F8FA80145545D4F5CA74BA7D301E4
:100CC000C2014496A11DB11D8DA79EA7AFA7B8ABC9
:100CD000D80112968D919C911397DC01ED91FC91B6
:100CE0000284F385E02D09959C0197FDEBC2E98D07
:100CF000FA8D80819181820F931F91838083D4012B
:100D00004D915C9147305105C9F4EF8DF8A1808178
:100D10009181AC014F5F5F4F51834083F801E80F31
:100D2000F91F248BD5018D919C91119701978D937B
:100D30009C93892B69F688E090E033C041155105FA
:100D400041F52F3F310589F481E090E0D4018D9386
:100D50009C932DA53EA54FA558A9ABA5BCA52D9349
:100D60003D934D935C931397B3CF0E942616DC01FD
:100D7000CB0184199509A609B7090697A105B10504
:100D800008F4A6CFF801EE54FD4F10828EEF9FEFCE
:100D9000C1C241305105A9F42E3F310531F482E042
:100DA00090E0F4019183808393CFD4011D921C9233
:100DB000E9A1FAA1808181118BCFC8010E9432166E
:100DC00087CF4230510589F4D5012D933C93EF8DA7
:100DD000F8A11182108283E090E0D4018D939C935E
:100DE000E98DFA8D3183208373CF4330510569F447
:100DF000322F2227D5018D919C911197280F391FF1
:100E00002D933C9384E090E0CCCF4430510589F49D
:100E100060E071E00E94411D8F3F910531F485E053
:100E200090E0D4018D939C9353CFF40111821082F2
:100E30004FCF4530510571F4AB8DBC8D2D933C9354
:100E400086E090E0F40191838083A98DBA8D2D9383
:100E50003C933ECF4630510599F4322F2227EB8D3B
:100E6000FC8D80819181280F391F3183208387E099
:100E700090E0D4018D939C93F5018081918159CFAD
:100E80004830510509F024CFD4011D921C9260E036
:100E900071E00E94411D8F3F910509F019CFEB8D44
:100EA000FC8D80819181009709F03EC1C8010E94AC
:100EB000321688E291E09A8389831C821B828DE03E
:100EC00092E09E838D8398878F839A8789871B867C
:100ED0001C861D861E866801FCEBCF1AFDEFDF0A1B
:100EE00078012AE8E21A2DEFF20A2CE1222E21E005
:100EF000322ED601AD90BC90A114B10409F474C097
:100F00001A8A198A388A2F861E8A1D8A86E990E0F5
:100F10000E94A91E9C8B8B8BFC011082EB56FF4F0D
:100F20001082D50115968D919C9116979C838B8389
:100F30006D917C91119712964C91CE010F960E9463
:100F4000AB019E838D83D601ED91FC9183819481C9
:100F5000DC01ED91FC910480F581E02D0995BC0147
:100F6000CE010F960E94670198878F83D601ED917D
:100F7000FC9183819481DC01ED91FC910680F781E5
:100F8000E02D0995BC01CE010F960E9467019A875A
:100F9000898728E131E040E050E02B873C874D878E
:100FA0005E87D601ED91FC9161857285D801ED9146
:100FB000FC910190F081E02DAE014F5F5F4FC801C1
:100FC000099589899A898130910519F46FEC71E04E
:100FD00004C0029729F463EE71E0C8010E946D130A
:100FE000CE010F960E94C702B2E0CB0ED11CEC14CA
:100FF000FD0409F07ECF9CE1A92E91E0B92EF70106
:10100000C080D180C114D10409F473C01A8A198A2E
:10101000B88AAF861E8A1D8A86E990E00E94A91EC2
:101020009C8B8B8BDC011C92FC01EB56FF4F1082DA
:10103000F601828193819C838B83648175814681D3
:10104000CE010F960E94AB019E838D83D7018D91B7
:101050009C91DC01ED91FC910480F581E02D0995D6
:10106000BC01CE010F960E94670198878F83F7011C
:1010700080819181DC01ED91FC910680F781E02D6A
:101080000995BC01CE010F960E9467019A87898756
:1010900028E131E040E050E02B873C874D875E87B8
:1010A000D801ED91FC91C080D180F70180819181C0
:1010B000DC01ED91FC910280F381E02D0995AE01F8
:1010C0004F5F5F4FBC01C801F601099589899A8974
:1010D0008130910519F46FEC71E004C0029729F496
:1010E00063EE71E0C8010E946D13CE010F960E945D
:1010F000C702F2E0EF0EF11C8E149F0409F07FCFBF
:10110000F801EE54FD4F81E0808331964082518298
:1011100062827382AD8DBE8D4D925D926D927C9296
:1011200013978FEF9FEFF6C08A30910509F0A1C0A9
:1011300080E491E09A8389831B821C821D821E8237
:101140001F82188619861A860E942616F801C08406
:10115000D184E284F3849B01AC012C193D094E0932
:101160005F0969017A01B101CE0101960E94D701A0
:10117000C701B60128EE33E040E050E00E94551D63
:10118000CB80DC80ED80FE80C20ED31EE41EF51EF7
:10119000CB82DC82ED82FE829B01AC0160E472E4D2
:1011A0008FE090E00E94311DCF80D884E984FA84DA
:1011B000DC01CB018C0D9D1DAE1DBF1D8F8398875B
:1011C000A987BA870E942616CF80D884E984FA843A
:1011D00036E3D31A35E6E30A34ECF30A28EE33E0BB
:1011E00040E050E00E94551D2BA33CA34DA35EA3FD
:1011F0009B01AC0160E472E48FE090E00E94311D3D
:10120000A7019601261B370B480B590BCA01B901E0
:10121000CB80DC80ED80FE8031E0C31AD108E1088C
:10122000F1082BA13CA14DA15EA1C21AD30AE40A88
:10123000F50A20E03AEC4AE95BE30E94551DC20E34
:10124000D31EE41EF51ED8011C96CD92DD92ED92C0
:10125000FC921F97F801608B718B828B938B0E949D
:101260002616AD8DBE8D6D937D938D939C931397B4
:101270002FCD8630910551F4B1018FA198A50E9420
:10128000280481E0E9A5FAA5808322CD8B30910561
:1012900021F4A9A1BAA11C921BCDFC01E952FF4F78
:1012A000EE0FFF1FE00FF11F80819181009709F47D
:1012B0000FCDDC01ED91FC910190F081E02DB101A9
:1012C000099506CDF801EE54FD4F8081882301F188
:1012D0007801BDE4EB1ABDEFFB0AF7018081918133
:1012E000A281B381A3019201281B390B4A0B5B0B2E
:1012F000DA01C901853C9940A105B10548F0C80152
:101300000E943216D7014D925D926D927C92139796
:1013100080E090E0E0960FB6F894DEBF0FBECDBF40
:10132000DF91CF911F910F91FF90EF90DF90CF90C1
:10133000BF90AF909F908F907F906F905F904F90F5
:101340003F902F9008954F925F926F927F928F926D
:101350009F92AF92BF92EF92FF920F931F93CF9302
:10136000DF9300D000D0CDB7DEB77C018B01FB014D
:101370008191BF01F7018283CE0101960E94FA0399
:1013800089819A81AB81BC814C015D01F5E08F0EB2
:10139000911CA11CB11CA8014C5F5F4FFA0125E014
:1013A00030E02901612C712C481459046A047B0433
:1013B00028F4618161932F5F3F4FF3CFF801E80F6D
:1013C000F91F1482F7015483438305960F900F9001
:1013D0000F900F90DF91CF911F910F91FF90EF90A1
:1013E000BF90AF909F908F907F906F905F904F9045
:1013F00008954F925F926F927F928F929F92AF92D9
:10140000BF92CF92DF92EF92FF920F931F93CF93F1
:10141000DF93CDB7DEB72C970FB6F894DEBF0FBEC3
:10142000CDBF7C018B01DB018C9190E0F7019383B0
:10143000828311962C91922B938382836E5F7F4FD0
:10144000CE0101960E94FA0389809A80AB80BC800D
:1014500024013501F6E04F0E511C611C711C9801EE
:101460002B5F3F4FF90186E090E0AC0160E070E057
:10147000441555056605770520F441814193019691
:10148000F4CFF801E80DF91D1582D70115963C93AC
:101490002E931497B4016A5F7F4F600F711FCE01C6
:1014A00005960E94FA03BAE08B0E911C4D805E8077
:1014B0006F807884A401092C000C660B770B440D17
:1014C000551D661D771DD801A80DB91DCD01801BC6
:1014D000910B5C01C12CD12CA416B506C606D7060B
:1014E00028F48D91FD0132978083F0CF5401A40C34
:1014F000B51CB8016A0D7B1DFB0131971082C40138
:101500000197800F911FF70197838683CE0109967B
:101510000E94FA0395012C5F3F4F89859A85AB8520
:10152000BC852901032E000C66087708480E591E59
:101530006A1E7B1EF5013396E00FF11FA9014A01D7
:10154000A12CB12C84149504A604B70428F461815D
:1015500061934F5F5F4FF3CF820F931FF801E80F46
:10156000F91FDF0111971C9221503109020F131F3F
:10157000D70119961C930E9318972181428150E050
:1015800060E070E0BA0155274427522B2081422B9E
:101590002381722BF70142875387648775870496EE
:1015A0002C960FB6F894DEBF0FBECDBFDF91CF9162
:1015B0001F910F91FF90EF90DF90CF90BF90AF9071
:1015C0009F908F907F906F905F904F900895CF92F3
:1015D000DF92EF92FF9220E030E06A017B01022E61
:1015E00004C0F694E794D794C7940A94D2F7FC0108
:1015F000C192CF01285F3F4F2032310571F7FF9034
:10160000EF90DF90CF9008954F925F926F927F920C
:10161000AF92BF92CF92DF92EF92FF920F931F9300
:10162000CF93DF93EC018B018A81FB0180838B8157
:1016300081838C8182838D818383DB0140E050E054
:10164000BA01E4E0F0E01496CA80DB80EC80FD8013
:10165000CF0104964C155D056E057F05C8F42A85FB
:101660003B85E20FF31F3497D080F18032812381D4
:10167000DC921196FC92119712963C931297139656
:101680002C931397FC014F5F5F4F6F4F7F4FDBCF62
:101690005F01A00EB11E2C85F50120832D852183CD
:1016A0002E8522832F852383D50140E050E0BA01A7
:1016B000CC84DD84EE84FF849C012C5F3F4F4C156D
:1016C0005D056E057F05F8F4CD018A199B09EC884C
:1016D000FD888E0D9F1DFC01D080E180F28083810A
:1016E0001496DC9214971596EC9215971696FC9228
:1016F000169717968C931797C9014F5F5F4F6F4FDF
:101700007F4F1496D5CFF801E80FF91F8E8980839B
:101710008F898183888D8283898D83837901A12C30
:10172000B12C412C512C32018E899F89A88DB98D05
:10173000481659066A067B0680F5EC8DFD8DEA0D8C
:10174000FB1DA081B181FD0101900020E9F73197D7
:101750006F01CA1ADB0AA60160E070E0C8018E0DB5
:101760009F1D0E94E70AF4E0EF0EF11CEC8DFD8D49
:10177000EA0DFB1D60817181A601C8018E0D9F1DC0
:101780000E949520EC0CFD1C8FEF481A580A680A3D
:10179000780AE2E0AE0EB11CC7CFC701DF91CF914E
:1017A0001F910F91FF90EF90DF90CF90BF90AF907F
:1017B0007F906F905F904F900895EF92FF920F93FC
:1017C0001F93CF93DF938C017B01DC0112962C9148
:1017D0001297FB012193CF011396ED91FC91149781
:1017E000EF0109900020E9F72197CE1BDF0BAE0136
:1017F00060E070E00E94E70AD80113966D917C9139
:101800001497AE01C70105960E949520CE0105965A
:10181000DF91CF911F910F91FF90EF900895CF929C
:10182000DF92EF92FF920F931F93CF93DF937C0190
:101830008B01DC0112968C911297FB018083139629
:101840008C91139781831496ED91FC911597EF017C
:1018500009900020E9F72197CE1BDF0BAE0160E075
:1018600070E0C80102960E94E70AD70114966D91B4
:101870007C911597AE01C80106960E949520CE0175
:101880000696F701A681B781FD0101900020E9F7D6
:1018900031976F01CA1ADB0AA60160E070E0800F81
:1018A000911F0E94E70A2A96D70116966D917C91A6
:1018B0001797A601C8018C0F9D1F0E949520CC0D83
:1018C000DD1DD7011896ED91FC911997DF010D9060
:1018D0000020E9F711976D01CE1ADF0AA60160E03A
:1018E00070E0C8018C0F9D1F0E94E70A2496F70143
:1018F00060857185A601C8018C0F9D1F0E949520EF
:10190000C6018C0F9D1FD7011A966C911A971B96D2
:101910004C911B971C963C911C971D962C91F8019D
:10192000E80FF91F60834183328323830496DF919C
:10193000CF911F910F91FF90EF90DF90CF9008957E
:10194000CF92DF92EF92FF920F931F93CF93DF938B
:101950006C017A018B01C0E0D0E0CE15DF0581F08B
:10196000D8016D918D01D601ED91FC910190F0812E
:10197000E02DC6010995892B11F02196EECF7E014D
:10198000C701DF91CF911F910F91FF90EF90DF90F2
:10199000CF900895089580E090E00895FC01538D64
:1019A000448D252F30E0842F90E0821B930B541739
:1019B00010F0CF96089501970895FC01918D828DC6
:1019C000981761F0828DDF01A80FB11D5D968C9193
:1019D000928D9F5F9F73928F90E008958FEF9FEF9E
:1019E0000895FC01918D828D981731F0828DE80F5A
:1019F000F11D858D90E008958FEF9FEF0895FC0114
:101A0000918D228D892F90E0805C9F4F821B9109E0
:101A10008F73992708958CEB92E00E94FF0C21E0D0
:101A2000892B09F420E0822F0895FC01848DDF01C9
:101A3000A80FB11DA35ABF4F2C91848D90E0019641
:101A40008F739927848FA689B7892C93A089B18930
:101A50008C91837080648C93938D848D981306C0D1
:101A60000288F389E02D80818F7D80830895EF9235
:101A7000FF920F931F93CF93DF93EC0181E0888F48
:101A80009B8D8C8D981305C0E889F989808185FD2F
:101A900026C0F62E0B8D10E00F5F1F4F0F7311271E
:101AA000E02E8C8DE8120CC00FB607FCFACFE88947
:101AB000F989808185FFF5CFCE010E94150DF1CF08
:101AC0008B8DFE01E80FF11DE35AFF4FF0829FB7A7
:101AD000F8940B8FEA89FB89808180620AC09FB7E6
:101AE000F894EE89FF896083E889F98980818370A1
:101AF000806480839FBF81E090E0DF91CF911F9150
:101B00000F91FF90EF900895CF93DF93EC01888DB4
:101B10008823C9F0EA89FB89808185FD05C0A889F1
:101B2000B9898C9186FD0FC00FB607FCF5CF808177
:101B300085FFF2CFA889B9898C9185FFEDCFCE01C1
:101B40000E94150DE7CFDF91CF91089580E090E0DE
:101B5000892B29F00E940B0D81110C94000008952F
:101B600081EF91E008958FED91E008958EEB91E083
:101B700008958EEA91E008958DE891E0089589E74F
:101B800091E00895FC0187A190A5089588E591E072
:101B9000089582E491E00895EF92FF920F931F93CE
:101BA000CF93DF93EC017B018A01888199810097B3
:101BB00029F02A813B8124173507F8F4B8016F5FBB
:101BC0007F4F0E94CA1F009759F0998388831B8317
:101BD0000A832C813D81232B81F4FC0110820DC0EE
:101BE00088819981009711F00E94411F1982188203
:101BF0001D821C821B821A8207C01D830C83B701C1
:101C0000888199810E949E20CE01DF91CF911F9102
:101C10000F91FF90EF9008954F925F926F927F9295
:101C20008F929F92AF92BF92EF92FF920F931F936A
:101C3000CF93DF9300D000D0CDB7DEB77C018B010E
:101C4000FB01808190E0A0E0B0E0F7018283938304
:101C5000A483B583FB012181922BF70182839383B7
:101C6000A483B583FB012281A22BF7018283938396
:101C7000A483B583FB012381B22BF7018283938375
:101C8000A483B583FB01848190E0A0E0B0E0F7017C
:101C900086839783A087B187FB012581922BF7016B
:101CA00086839783A087B187FB012681A22BF7014A
:101CB00086839783A087B187FB012781B22BF70129
:101CC00086839783A087B187FB01808590E0A0E0A1
:101CD000B0E0F70182879387A487B587FB01218550
:101CE000922BF70182879387A487B587FB01228512
:101CF000A22BF70182879387A487B587FB012385F1
:101D0000B22BF70182879387A487B587645F7F4FE3
:101D1000CE0101960E94FA0389819A81AB81BC8130
:101D20004C015D01F0E18F0E911CA11CB11CA801BA
:101D3000415F5F4FFA0120E130E02901612C712CF5
:101D4000481459046A047B0428F4618161932F5F6D
:101D50003F4FF3CFF801E80FF91F1786F7015787B8
:101D6000468740960F900F900F900F90DF91CF9184
:101D70001F910F91FF90EF90BF90AF909F908F9029
:101D80007F906F905F904F9008950F931F93CF9324
:101D9000DF93EC018B0102960E940C0EF801E80F14
:101DA000F91F20812A8B2281438150E060E070E09E
:101DB000BA0155274427522B2181422B2481722BB3
:101DC0004B8B5C8B6D8B7E8B2681478150E060E076
:101DD00070E0BA0155274427522B2581422B2085DC
:101DE000722B4F8B588F698F7A8F2285438550E0F5
:101DF00060E070E0BA0155274427522B2185422B21
:101E00002485722B4B8F5C8F6D8F7E8F2685478547
:101E100050E060E070E0BA0155274427522B258539
:101E2000422B2089722B4F8F58A369A37AA3419626
:101E3000DF91CF911F910F910895EF92FF920F9331
:101E40001F93CF93DF938C01EB01FC018281888388
:101E50008381898384818A8385818B8386818C8336
:101E600087818D8380858E8381858F838285888716
:101E70008385898784858A8785858B87A685B785AD
:101E8000FD0101900020E9F731977F01EA1AFB0A72
:101E9000A70160E070E0CE010C960E94E70AF8010D
:101EA00066857785A701CE0140960E949520C701DF
:101EB0004096DF91CF911F910F91FF90EF90089581
:101EC0000F931F93CF93DF93EC018B0102960E9437
:101ED0001D0F2A89F801E80FF91F20835B894C89BF
:101EE0003D892E8951834283338324835F89488DC2
:101EF000398D2A8D55834683378320875B8D4C8DA2
:101F00003D8D2E8D51874287338724875F8D48A171
:101F100039A12AA1558746873787208B4196DF91C3
:101F2000CF911F910F9108954F925F926F927F9280
:101F30008F929F92AF92BF92CF92DF92EF92FF92D9
:101F4000CF93DF9300D000D0CDB7DEB7FC01C480C3
:101F5000D580E680F780828C938CA48CB58CA5010B
:101F60009401C701B6010E94911D20E030E040E0DD
:101F70005FE30E94221C2B013C01A5019401C701D3
:101F8000B6010E94921D20E030E040E05FE30E9435
:101F9000221C6B017C01C301B2019F7720E030E07D
:101FA00045E354E40E94221C20E030E046E953E47B
:101FB0000E94921D0E94701E4B015C01C701B60178
:101FC0009F7720E030E045E354E40E94221C20E0AB
:101FD00030E046E953E40E94921D0E94701E69831E
:101FE0007A838B839C8320E030E0A901C301B20196
:101FF0000E949F1E181634F461E088E00E940215CA
:1020000060E005C060E088E00E94021561E089E0C0
:102010000E940215B4018AE00E948B1520E030E096
:10202000A901C701B6010E949F1E181634F461E091
:102030008DE00E94021560E005C060E08DE00E9426
:10204000021561E08CE00E94021569817A818BE0C3
:102050000F900F900F900F90DF91CF91FF90EF9026
:10206000DF90CF90BF90AF909F908F907F906F90B8
:102070005F904F900C948B15EF92FF920F931F93EC
:10208000CF93DF938C017B01BC016E5F7F4FC70153
:102090000E94D602EC01B8016A5F7F4FC7018C0F26
:1020A0009D1F0E94D602C80FD91FB801665F7F4FDF
:1020B000C7018C0F9D1F0E94D6028C0F9D1FDF91C0
:1020C000CF911F910F91FF90EF900895EF92FF92A3
:1020D0000F931F93CF93DF937C01EB0102960E9435
:1020E0003C108C01BE01680F791FC70140960E9409
:1020F0003C10800F911FDF91CF911F910F91FF90A6
:10210000EF9008950F931F93CF93DF938C01EC0111
:102110002796CE010E946610D8019596ED91FC910C
:102120009697CE01DF91CF911F910F910994EF9275
:10213000FF920F931F93CF93DF937C018B01FC01E0
:102140004281538164817581C8010E947E03EC0144
:10215000F7014681578160857185C8018C0F9D1FED
:102160000E947E03C80FD91FF701428553856485FD
:102170007585C8018C0F9D1F0E947E038C0F9D1FCB
:10218000DF91CF911F910F91FF90EF900895EF9203
:10219000FF920F931F93CF93DF937C01EB01029685
:1021A0000E9497108C01BE01680F791FC7014096ED
:1021B0000E949710800F911FDF91CF911F910F9177
:1021C000FF90EF900895CF93DF93EC01FB0186170A
:1021D0009707B1F0608171816115710529F0448123
:1021E00055810E94CC0D0CC088819981009711F017
:1021F0000E94411F198218821D821C821B821A8232
:10220000CE01DF91CF910895FC01808191810C94E2
:10221000411FFC01118210821382128215821482E6
:102220000C94E310FC011182108213821282158239
:1022300014826115710551F0FB0101900020E9F74E
:102240003197AF01461B570B0C94CC0D0895CF92DC
:10225000DF92EF92FF920F931F93CF93DF93CDB74F
:10226000DEB72C970FB6F894DEBF0FBECDBF0E942D
:102270000116009173061091740620917506309135
:102280007606061717072807390730F48091700083
:102290008D7F80937000FAC0E0916D06F0916E061C
:1022A000908180916A06892309F0F0C080917000C6
:1022B0008D7F809370000E940116209171063091ED
:1022C0007206890120E030E0C0907306D090740659
:1022D000E0907506F09076060C191D092E093F094D
:1022E0000D50110921093109600F711F821F931FC1
:1022F0006093650670936606809367069093680600
:1023000029E330E040E050E00E94551D3093B102D7
:102310002093B002809167099091680918161906F8
:102320000CF56AE679E0CE0101960E94091167EF8B
:1023300071E0CE0107960E9412114CEF51E0BE01F0
:102340006F5F7F4FCE0107960E94B514CE010796AE
:102350000E940411CE0101960E94041181E0809335
:10236000690902C010926909809169098823E9F01E
:10237000C090B002D090B1020D2C000CEE08FF0806
:10238000F7FE0EC06DE28CEB92E00E94370D6627DF
:102390007727CB016C197D098E099F094AE003C09C
:1023A0004AE0C701B6010E94A213809169098823FF
:1023B00041F088E092E00E9490138BE092E00E944E
:1023C00090136091B0027091B102072E000C880B3F
:1023D000990B0E94C31B60938303709384038093C3
:1023E0008503909386030E94261628EE33E040E092
:1023F00050E00E94551DC0909303D0909403E0904C
:102400009503F0909603C20ED31EE41EF51E9B01A9
:10241000AC0160E472E48FE090E00E94311D009115
:102420009703109198032091990330919A03600FBC
:10243000711F821F931F20E03AEC4AE95BE30E9480
:10244000551DC20ED31EE41EF51EC0926C03D09221
:102450006D03E0926E03F0926F03609370037093CC
:102460007103809372039093730380916003909142
:10247000610360915E0370915F03DC01ED91FC915B
:102480000190F081E02D44E653E009952C960FB6BB
:10249000F894DEBF0FBECDBFDF91CF911F910F919A
:1024A000FF90EF90DF90CF9008951F920F920FB69C
:1024B0000F9211242F933F934F935F936F937F93CA
:1024C0008F939F93AF93BF93EF93FF938CEB92E027
:1024D0000E94150DFF91EF91BF91AF919F918F9148
:1024E0007F916F915F914F913F912F910F900FBE10
:1024F0000F901F9018951F920F920FB60F921124F4
:102500002F938F939F93EF93FF93E091CC02F091E1
:10251000CD028081E091D202F091D30282FD12C0FF
:1025200090818091D5028F5F8F732091D6028217A0
:1025300051F0E091D502F0E0E454FD4F958F809387
:10254000D50201C08081FF91EF919F918F912F91D2
:102550000F900FBE0F901F901895CF93DF93FC0143
:1025600088E591E0918380838CEB92E09383828372
:1025700080E091EEA0E0B0E084839583A683B783EA
:10258000DF01AE54BD4F1C921E968CE491E0119673
:102590009C938E9312961D921D921D921C921597DC
:1025A0001B961C921E921A971C961D921D921D92AC
:1025B0001C921F9755961C921E92549756961D92E8
:1025C0001D921D921C9259975D961C921E925C97CB
:1025D000CF018C5B9D4FAA54B109EC01199219925D
:1025E000AC17BD07D9F79F0128553D4F1D921D928D
:1025F0002A173B07D9F7DF015496E45DFE4F1D9281
:10260000EA17FB07E1F711928E179F07E1F7DF91B9
:10261000CF910895CF92DF92EF92FF92CF93DF9305
:10262000EC016A017B01E889F98982E08083411528
:10263000514E61057105B1F060E079E08DE390E005
:10264000A70196010E94551DDA01C9010197A10950
:10265000B109B695A795979587959C01211580E1BD
:102660003807A8F0E889F989108260E874E88EE1FB
:1026700090E0A70196010E94551DDA01C90101975A
:10268000A109B109B695A795979587959C01EC8509
:10269000FD853083EE85FF852083188EEC89FD89CA
:1026A00086E08083EA89FB89808180618083EA8972
:1026B000FB89808188608083EA89FB8980818068CA
:1026C0008083EA89FB8980818F7D8083DF91CF9130
:1026D000FF90EF90DF90CF900895CF93DF9300D0DD
:1026E00000D01F92CDB7DEB724E331E03A832983CF
:1026F00023E02B837D836C83DC01ED91FC910190C1
:10270000F081E02DAE014F5F5F4F67E070E009950B
:102710000F900F900F900F900F90DF91CF91089531
:10272000009769F0FC0101900020E9F73197AF01B3
:10273000481B590BBC018CEB92E00C94A00C80E080
:1027400090E008958F929F92AF92BF920F931F9344
:10275000CF93DF93CDB7DEB7A1970FB6F894DEBF66
:102760000FBECDBF19A2423008F44AE08E010F5DC2
:102770001F4F842E912CA12CB12CA50194010E94F5
:10278000551DE62FB901CA0101501109EA3014F4B0
:10279000E05D01C0E95CD801EC93232B242B252BB1
:1027A00061F7C8010E949013A1960FB6F894DEBF9E
:1027B0000FBECDBFDF91CF911F910F91BF90AF9012
:1027C0009F908F9008958F929F92AF92BF92CF92D9
:1027D000DF92EF92FF920F931F93CF93DF936B01E2
:1027E0007C01142F9B01AC010E94A41E882319F0C8
:1027F00080E292E027C046015701E894B7F82FEF36
:102800003FEF4FE75FE7C501B4010E94A41E8111AD
:102810000DC02FEF3FEF4FE75FE7C501B4010E9406
:10282000BC1B18161CF484E292E00CC02FEF3FEFA3
:102830004FE75FE4C701B6010E949F1E181684F49B
:1028400088E292E0DF91CF911F910F91FF90EF907E
:10285000DF90CF90BF90AF909F908F900C9490138B
:102860002FEF3FEF4FE75FECC701B6010E94BC1BA3
:1028700087FDE6CF20E030E0A901C701B6010E9444
:10288000BC1B87FF0BC06DE28CEB92E00E94370D02
:10289000EC01F7FAF094F7F8F09402C0C0E0D0E051
:1028A00000E060E070E080E09FE3101741F020E07E
:1028B00030E040E251E40E94FE1D0F5FF6CFA70119
:1028C00096010E94921D6B017C010E94701E4B01BB
:1028D0005C014AE00E94A213C80FD91F1123B9F16D
:1028E000C501B4010E94C11B9B01AC01C701B60127
:1028F0000E94911D6B017C016EE28CEB92E00E94C4
:10290000370DC80FD91F20E030E040E251E4C70185
:10291000B6010E94221C4B015C010E94701E6B01DB
:10292000E12CF12C4AE0C701B6010E94A213C80FA6
:10293000D91FC701B6010E94C11B9B01AC01C50193
:10294000B4010E94911D6B017C011150E1F6CE0192
:10295000DF91CF911F910F91FF90EF90DF90CF907B
:10296000BF90AF909F908F9008950F931F93CF9338
:10297000DF93EB018A01FC01448155816081718103
:102980008CEB92E00E94A00C8CE292E00E949013EB
:102990004C815D81688179818CEB92E00E94A00C72
:1029A00081E392E00E949013C801DF91CF911F91C3
:1029B0000F910C9490131F920F920FB60F92112447
:1029C0002F933F934F935F936F937F938F939F9337
:1029D000AF93BF93EF93FF93E091BA02F091BB02E4
:1029E0000995FF91EF91BF91AF919F918F917F9149
:1029F0006F915F914F913F912F910F900FBE0F906C
:102A00001F90189590E0FC01EE5EFD4F2491FC01B3
:102A1000E85AFD4F3491FC01EC5BFD4FE491EE234D
:102A200009F43CC0222339F1233091F038F42130ED
:102A3000A9F0223001F584B58F7D12C0273091F0C6
:102A40002830A1F02430B9F4809180008F7D03C03C
:102A5000809180008F77809380000DC084B58F7740
:102A600084BD09C08091B0008F7703C08091B00011
:102A70008F7D8093B000F0E0EE0FFF1FE65CFD4F0E
:102A8000A591B4919FB7F894611104C08C913095D1
:102A9000382302C0EC913E2B3C939FBF0895CF9307
:102AA000DF9390E0FC01E85AFD4F2491FC01EC5BC0
:102AB000FD4F8491882361F190E0880F991FFC01FC
:102AC000EA5DFD4FC591D491FC01E65CFD4FA591F7
:102AD000B491611109C09FB7F89488812095822331
:102AE0008883EC912E230BC0623061F49FB7F89479
:102AF0008881322F309583238883EC912E2B2C9361
:102B00009FBF06C08FB7F894E8812E2B28838FBF14
:102B1000DF91CF9108951F93CF93DF93182FEB018F
:102B200061E00E944F15209711F460E004C0CF3F90
:102B3000D10539F461E0812FDF91CF911F910C9481
:102B40000215E12FF0E0EE5EFD4FE491E330F9F085
:102B500048F4E130B9F0E230A1F584B5806284BD7B
:102B6000C8BD34C0E730E9F0E83019F1E43049F588
:102B700080918000806280938000D0938B00C0930E
:102B80008A0024C084B5806884BDC7BD1FC0809101
:102B90008000806880938000D0938900C093880073
:102BA00015C08091B00080688093B000C093B300DE
:102BB0000DC08091B00080628093B000C093B400DB
:102BC00005C0C038D1050CF0B5CFAFCFDF91CF91A4
:102BD0001F9108958E3008F08E5087708064809326
:102BE0007C0080917A00806480937A0080917A00E2
:102BF00086FDFCCF809178002091790090E0922BA7
:102C000008953FB7F8948091B6029091B702A091D1
:102C1000B802B091B90226B5A89B05C02F3F19F0A4
:102C20000196A11DB11D3FBFBA2FA92F982F88274C
:102C3000820F911DA11DB11DBC01CD0142E0660FA7
:102C4000771F881F991F4A95D1F708952FB7F894D9
:102C50006091B2027091B3028091B4029091B5027A
:102C60002FBF08950F931F93CF93DF93CDB7DEB798
:102C70002A970FB6F894DEBF0FBECDBF8C0180E45B
:102C800091E09A8389831B821C821D821E821F828F
:102C9000188619861A86D801ED91FC910190F08171
:102CA000E02DAE014F5F5F4F6AE070E0C80109950B
:102CB0000E942616F80160877187828793872A967B
:102CC0000FB6F894DEBF0FBECDBFDF91CF911F913D
:102CD0000F910895CF93DF9300D000D000D0CDB7EF
:102CE000DEB761E088E00E944F1561E08DE00E9450
:102CF0004F1561E08AE00E944F1561E08BE00E9471
:102D00004F1561E08AE00E944F1561E08BE00E9460
:102D10004F1560E088E00E94021560E08DE00E949F
:102D2000021560E089E00E94021560E08CE00E94DC
:102D3000021560E070E08AE00E948B1560E070E0B0
:102D40008BE00E948B1566E372E0CE0101960E9433
:102D50001211BE016F5F7F4F83E799E00E94E3107D
:102D6000CE0101960E94041185E090E090937109D4
:102D70008093700926960FB6F894DEBF0FBECDBFC4
:102D8000DF91CF9108950F931F93CF93DF93CDB72A
:102D9000DEB72C970FB6F894DEBF0FBECDBF8C0107
:102DA00061E679E0CE0107960E94091160E472E0C5
:102DB000CE0101960E941211A801BE01695F7F4FEA
:102DC000CE0101960E94B514CE0101960E94041115
:102DD000CE0107960E94041181E0809360092C9631
:102DE0000FB6F894DEBF0FBECDBFDF91CF911F911C
:102DF0000F9108950E9490201F920F920FB60F928C
:102E000011242F933F938F939F93AF93BF93809100
:102E1000B2029091B302A091B402B091B502309188
:102E20007E0923E0230F2D3720F40196A11DB11D4B
:102E300005C026E8230F0296A11DB11D20937E092F
:102E40008093B2029093B302A093B402B093B50200
:102E50008091B6029091B702A091B802B091B902E8
:102E60000196A11DB11D8093B6029093B702A09365
:102E7000B802B093B902BF91AF919F918F913F91EA
:102E80002F910F900FBE0F901F90189588E599E035
:102E90000E94041183E799E00E94041181E699E001
:102EA0000E9404118AE699E00C940411ECEBF2E024
:102EB0001382128288EE93E0A0E0B0E084839583D1
:102EC000A683B78384E691E09183808385EC90E0CC
:102ED0009587848784EC90E09787868780EC90E0E4
:102EE000918B808B81EC90E0938B828B82EC90E0D5
:102EF000958B848B86EC90E0978B868B118E128E4F
:102F0000138E148EEEE5F2E08491A5E6B6E01496F9
:102F10008C931497E4911596EC9315978AE492E0BC
:102F2000FC012491E22FF0E0EE0FFF1FE65CFD4F65
:102F30002591349117963C932E931697FC0124917A
:102F4000E22FF0E0EE0FFF1FE05DFD4F2591349181
:102F500019963C932E931897FC018491E82FF0E08A
:102F6000EE0FFF1FEA5DFD4F859194911B969C9398
:102F70008E931A9785E093E41D969C938E931C97ED
:102F8000E7E6F9E01182108212826DE072E08AE6D3
:102F900099E00E94121187E893E00E94AD12E4E6E6
:102FA000F3E082E891E09183808386E791E0938368
:102FB00082831482158216821782108611861286E9
:102FC000138614861586168617868DE092E0918BFF
:102FD000808B128A138A148A158A168A178A108E91
:102FE000118E128E138E148E158E168E178E10A2C1
:102FF00011A212A2A9E5B3E08EE092E011969C9393
:103000008E9312961C9212971496FC93EE9313973C
:103010001A961C921E921997EEE5F9E01182108221
:1030200012826DE072E081E699E00E941211E0E701
:10303000F9E01182108212826DE072E083E799E07C
:103040000E941211E5E5F9E01182108212826DE012
:1030500072E088E599E00E94121187E796E00C94EF
:10306000AD12CF93DF93CDB7DEB768970FB6F89464
:10307000DEBF0FBECDBF789484B5826084BD84B5B9
:10308000816084BD85B5826085BD85B5816085BD63
:1030900080916E00816080936E001092810080911B
:1030A00081008260809381008091810081608093A3
:1030B0008100809180008160809380008091B100C8
:1030C00084608093B1008091B00081608093B000F3
:1030D00080917A00846080937A0080917A00826087
:1030E00080937A0080917A00816080937A00809149
:1030F0007A00806880937A001092C10040E855E21F
:1031000060E070E08CEB92E00E940A1385E090E0B2
:10311000909356098093550965E672E0CE010196B9
:103120000E941211BE016F5F7F4F88E599E00E94F7
:10313000E310CE0101960E94041140917B0650914C
:103140007C0660917D0670917E0680917906909153
:103150007A060E940A131092200910921F091092F9
:103160002209109221091092260910922509109225
:103170002409109223090E946A1660E08EE00E94E2
:103180004F1560E08FE00E944F1566E372E0CE01BC
:1031900001960E941211BE016F5F7F4F81E699E098
:1031A0000E94E310CE0101960E94041110925F0963
:1031B00010925E09109268091092670962E772E046
:1031C000CE0101960E941211BE016F5F7F4F8AE609
:1031D00099E00E94E310CE0101960E9404118EE155
:1031E00090E090930F0180930E010E942616609349
:1031F0007A0970937B0980937C0990937D09EBECAD
:10320000F5E080E090E021913191232BB1F4FC01B5
:10321000EE0FFF1FE553FA4F29E533E0318320839A
:1032200083589F4F90935F0380935E0387E893E0FA
:10323000909361038093600304C0019689319105E6
:1032400011F781E08093760380E091E0909375031D
:103250008093740385E89AE0A6E8BEE38093770341
:1032600090937803A0937903B0937A038AE097ED63
:10327000A3EABCE380937B0390937C03A0937D033C
:10328000B0937E0380E090E0A0EAB0E480937F03F7
:1032900090938003A0938103B093820333243394EB
:1032A0000BE010E053E2A52EB12C67E2862E61E11F
:1032B000962E75E0272ED090290980917909D8168D
:1032C00009F454C0D09279096D2D63258DE00E94D8
:1032D0000215D11005C044E5E42E42E0F42E04C0EE
:1032E00036E4E32E32E0F32E809155099091560991
:1032F00018161906CCF568E579E0CE010D960E9406
:10330000091167EF71E0CE0143960E941211BE01D0
:10331000635F7F4FCE0101960E940911BE016D5E71
:103320007F4FCE0107960E940911A701BE016F5F72
:103330007F4FCE0107960E94B514CE0107960E94DA
:103340000411CE0101960E9404118BE092E00E94CC
:103350009013CE0143960E940411CE010D960E9457
:1033600004113092570902C010925709D1101AC0A7
:1033700060E088E00E94021560E089E00E9402158A
:1033800060E070E08AE00E948B1560E08DE00E94B2
:10339000021560E08CE00E94021560E070E08BE0B6
:1033A0000E948B152AE0E22EF12C412C512C320187
:1033B0008FE00E94EA15BC01990F880B990B0E94BF
:1033C000C31B9B01AC01C301B2010E94921D2B01E2
:1033D0003C0121E0E21AF10859F720E030E040E238
:1033E00051E40E94FE1D21EE3AE740EA50E40E94BB
:1033F000221C20E030E040E85AE30E94221C25E332
:103400003EE540E551E40E94221C25ED38E741E409
:1034100050E40E94FE1D6B017C0120E030E040EE94
:1034200050E40E94BC1B87FF26C080915E099091EA
:103430005F0902972CF08CE792E00E94C31602C04D
:103440001092600980916009882349F042E0C70129
:10345000B6010E94E3138BE092E00E9490138091EA
:103460006009882341F08DE092E00E9490138BE088
:1034700092E00E94901320E030E040E051E4C70168
:10348000B6010E949F1E87FD1AC080915E0990912F
:103490005F0902972CF08AE892E00E94C31602C0EE
:1034A0001092600980916009882349F042E0C701C9
:1034B000B6010E94E3138BE092E00E9490139AE021
:1034C000E92EF12C412C512C32018EE00E94EA159C
:1034D000BC01990F880B990B0E94C31B9B01AC0187
:1034E000C301B2010E94921D2B013C0181E0E81A48
:1034F000F10859F720E030E040E251E4C301B201A5
:103500000E94FE1D21EE3AE740EA50E40E94221C90
:1035100020E030E040E85AE30E94221C20EB32E732
:1035200046E552E40E94221C21E835E943ED50E4CF
:103530000E94FE1D6B017C0120E030E040E250E47F
:103540000E94BC1B87FF22C080915E0990915F0999
:1035500002972CF089E992E00E94C31602C01092F3
:10356000600980916009882329F042E0C701B60113
:103570000E94E31380916009882341F08DE092E07E
:103580000E9490138BE092E00E9490130E942616F6
:10359000C0907A09D0907B09E0907C09F0907D0979
:1035A0006C157D058E059F0508F4B9C020910E01AC
:1035B00030910F01D701C601820F931FA11DB11DCC
:1035C00080937A0990937B09A0937C09B0937D093D
:1035D000E0916F06F0917006908180916906892BC9
:1035E0008083E0916B06F0916C0690818091690672
:1035F000809589238083C8010197F1F7E0916B06DC
:10360000F0916C06908180916906892B8083C501B9
:103610000197F1F7E0916B06F0916C069081809133
:103620006906809589238083E0916F06F09170068A
:10363000908180916906809589238083E0916D0651
:10364000F0916E06908180916A06892309F067C027
:103650000E94011620917106309172066901E12CD9
:10366000F12C28EAC20E26E1D21EE11CF11CDC017D
:10367000CB018C0D9D1DAE1DBF1D809373069093D5
:103680007406A0937506B0937606E0916D06F091EE
:103690006E06908180916A06892381F40E9401164A
:1036A000C0907306D0907406E0907506F090760690
:1036B000C616D706E806F90640F731C00E94011683
:1036C0002091710630917206DC01CB01820F931FAD
:1036D000A11DB11D8093730690937406A093750687
:1036E000B09376069092BB028092BA0280917000ED
:1036F0008D7F809370008091B6008F7D8093B6009F
:1037000082E08093B00084E08093B1001092B20018
:103710002092B3008091700082608093700087E7F0
:1037200096E00E94E3050E9401162B013C0184E112
:10373000C82ED12CE12CF12C0E940116DC01CB010A
:1037400084199509A609B709883E9340A105B105DA
:1037500098F321E0C21AD108E108F10888EE480E7A
:1037600083E0581E611C711CC114D104E104F104F2
:1037700019F70E94A60D9FCD0E94FE1B08F481E060
:103780000895E89409C097FB3EF490958095709554
:1037900061957F4F8F4F9F4F9923A9F0F92F96E99D
:1037A000BB279395F695879577956795B795F11112
:1037B000F8CFFAF4BB0F11F460FF1BC06F5F7F4FAF
:1037C0008F4F9F4F16C0882311F096E911C07723C1
:1037D00021F09EE8872F762F05C0662371F096E8CA
:1037E000862F70E060E02AF09A95660F771F881F99
:1037F000DAF7880F9695879597F90895990F00083D
:10380000550FAA0BE0E8FEEF16161706E807F907B2
:10381000C0F012161306E407F50798F0621B730B4D
:10382000840B950B39F40A2661F0232B242B252BCE
:1038300021F408950A2609F4A140A6958FEF811D71
:10384000811D08950E94351C0C94A61C0E94981C92
:1038500038F00E949F1C20F0952311F00C948F1CCF
:103860000C94951C11240C94DA1C0E94B71C70F364
:10387000959FC1F3950F50E0551F629FF001729F15
:10388000BB27F00DB11D639FAA27F00DB11DAA1F24
:10389000649F6627B00DA11D661F829F2227B00D71
:1038A000A11D621F739FB00DA11D621F839FA00DFC
:1038B000611D221F749F3327A00D611D231F849F4C
:1038C000600D211D822F762F6A2F11249F575040A3
:1038D0009AF0F1F088234AF0EE0FFF1FBB1F661F1E
:1038E000771F881F91505040A9F79E3F510580F0E7
:1038F0000C948F1C0C94DA1C5F3FE4F3983ED4F3D5
:10390000869577956795B795F795E7959F5FC1F78A
:10391000FE2B880F911D9695879597F9089597F935
:103920009F6780E870E060E008959FEF80EC089565
:1039300000240A941616170618060906089500248E
:103940000A9412161306140605060895092E039408
:10395000000C11F4882352F0BB0F40F4BF2B11F47C
:1039600060FF04C06F5F7F4F8F4F9F4F089557FDDB
:103970009058440F551F59F05F3F71F04795880FDD
:1039800097FB991F61F09F3F79F087950895121674
:1039900013061406551FF2CF4695F1DF08C0161620
:1039A00017061806991FF1CF8695710561050894D1
:1039B0000895E894BB2766277727CB0197F90895E8
:1039C0000E94221DA59F900DB49F900DA49F800D75
:1039D000911D112408952F923F924F925F926F9202
:1039E0007F928F929F92AF92BF92CF92DF92EF928F
:1039F000FF920F931F93CF93DF93CDB7DEB7CA1B10
:103A0000DB0B0FB6F894DEBF0FBECDBF09942A883A
:103A1000398848885F846E847D848C849B84AA84E2
:103A2000B984C884DF80EE80FD800C811B81AA816F
:103A3000B981CE0FD11D0FB6F894DEBF0FBECDBF3A
:103A4000ED010895A29FB001B39FC001A39F700D27
:103A5000811D1124911DB29F700D811D1124911D96
:103A60000895DB018F939F930E94E01CBF91AF915B
:103A7000A29F800D911DA39F900DB29F900D1124C8
:103A8000089597FB072E16F4009407D077FD09D010
:103A90000E94771D07FC05D03EF4909581959F4FBD
:103AA0000895709561957F4F0895A1E21A2EAA1B83
:103AB000BB1BFD010DC0AA1FBB1FEE1FFF1FA217DE
:103AC000B307E407F50720F0A21BB30BE40BF50BDB
:103AD000661F771F881F991F1A9469F76095709564
:103AE000809590959B01AC01BD01CF010895AA1B63
:103AF000BB1B51E107C0AA1FBB1FA617B70710F0D9
:103B0000A61BB70B881F991F5A95A9F7809590950A
:103B1000BC01CD010895EE0FFF1F0590F491E02D3B
:103B200009945058BB27AA270E94A91D0C94A61CD3
:103B30000E94981C38F00E949F1C20F039F49F3F8F
:103B400019F426F40C94951C0EF4E095E7FB0C9404
:103B50008F1CE92F0E94B71C58F3BA17620773072E
:103B60008407950720F079F4A6F50C94D91C0EF47F
:103B7000E0950B2EBA2FA02D0B01B90190010C017D
:103B8000CA01A0011124FF27591B99F0593F50F495
:103B9000503E68F11A16F040A22F232F342F4427ED
:103BA000585FF3CF469537952795A795F0405395E5
:103BB000C9F77EF41F16BA0B620B730B840BBAF0B5
:103BC0009150A1F0FF0FBB1F661F771F881FC2F720
:103BD0000EC0BA0F621F731F841F48F48795779534
:103BE0006795B795F7959E3F08F0B0CF9395880FEE
:103BF00008F09927EE0F9795879508950E94121E59
:103C00000C94A61C0E949F1C58F00E94981C40F027
:103C100029F45F3F29F00C948F1C51110C94DA1C8D
:103C20000C94951C0E94B71C68F39923B1F355239B
:103C300091F3951B550BBB27AA27621773078407BF
:103C400038F09F5F5F4F220F331F441FAA1FA9F355
:103C500035D00E2E3AF0E0E832D091505040E69543
:103C6000001CCAF72BD0FE2F29D0660F771F881FA4
:103C7000BB1F261737074807AB07B0E809F0BB0B97
:103C8000802DBF01FF2793585F4F3AF09E3F5105AB
:103C900078F00C948F1C0C94DA1C5F3FE4F3983E90
:103CA000D4F3869577956795B795F7959F5FC9F794
:103CB000880F911D9695879597F90895E1E0660F15
:103CC000771F881FBB1F621773078407BA0720F08E
:103CD000621B730B840BBA0BEE1F88F7E0950895F7
:103CE0000E94BF1C88F09F5798F0B92F9927B751B1
:103CF000B0F0E1F0660F771F881F991F1AF0BA9590
:103D0000C9F714C0B13091F00E94D91CB1E00895F8
:103D10000C94D91C672F782F8827B85F39F0B93FEA
:103D2000CCF3869577956795B395D9F73EF4909542
:103D30008095709561957F4F8F4F9F4F08950E949A
:103D4000FE1B08F48FEF08950E94FE1B880B990B51
:103D500008950F931F93CF93DF938230910510F452
:103D600082E090E0E0918109F091820920E030E06A
:103D7000A0E0B0E0309719F14081518102811381B8
:103D800048175907C8F08417950769F4109731F060
:103D900012960C93129713961C9327C000938109D7
:103DA0001093820922C02115310519F042175307DB
:103DB00018F49A01BD01EF01DF01F801DBCF2115F5
:103DC0003105F9F0281B390B2430310580F48A8144
:103DD0009B816115710521F0FB019383828304C0EF
:103DE0009093820980938109FE01329644C0FE01BE
:103DF000E20FF31F81939193225031093983288375
:103E00003AC020917F0930918009232B41F4209101
:103E10001201309113013093800920937F09209182
:103E20001001309111012115310541F42DB73EB734
:103E30004091140150911501241B350BE0917F092D
:103E4000F0918009E217F307A0F42E1B3F0B28170F
:103E5000390778F0AC014E5F5F4F2417350748F003
:103E60004E0F5F1F5093800940937F098193919378
:103E700002C0E0E0F0E0CF01DF91CF911F910F9100
:103E80000895CF93DF93009709F481C0FC01329726
:103E900013821282A0918109B0918209109781F456
:103EA00020813181820F931F20917F0930918009F9
:103EB0002817390751F5F0938009E0937F0967C00F
:103EC000ED0120E030E0CE17DF0740F44A815B814E
:103ED0009E0141155105F1F0EA01F5CFD383C2836C
:103EE00040815181840F951FC817D90759F48881E3
:103EF0009981840F951F0296918380838A819B818B
:103F0000938382832115310529F4F0938209E0938C
:103F100081093DC0E901FB83EA8349915991C40FAE
:103F2000D51FEC17FD0761F480819181840F951FE7
:103F30000296E90199838883828193819B838A8396
:103F4000E0E0F0E012968D919C911397009719F0A4
:103F5000FD01DC01F7CF8D919C9111979D012E5FA2
:103F60003F4F820F931F20917F09309180092817BE
:103F7000390769F4309729F4109282091092810967
:103F800002C013821282B0938009A0937F09DF914F
:103F9000CF910895A0E0B0E0E0EDFFE10C94EF1CBC
:103FA000EC01009721F4CB010E94A91EB4C0FC01D2
:103FB000E60FF71F9C0122503109E217F30708F4BE
:103FC000A8C0D9010D911C91119706171707B0F0E1
:103FD0000530110508F49BC0C801049786179707A0
:103FE00008F495C002501109061B170B0193119399
:103FF0006D937C93CF010E94411F89C05B01A01A81
:10400000B10A4C01800E911EA0918109B0918209E4
:10401000612C712CE12CF12C109709F446C08D9184
:104020009C911197A815B905B1F56C0142E0C40E39
:10403000D11CCA14DB0478F14C018A189B08640176
:1040400042E0C40ED11C1296BC9012971396AC910C
:10405000B5E0CB16D10440F0B282A3839182808276
:10406000D9016D937C9309C00E5F1F4F800F911F84
:10407000F90191838083EB2DFA2FE114F10431F0E3
:10408000D7011396FC93EE93129741C0F0938209E7
:10409000E09381093CC06816790608F43C017D0173
:1040A00012960D90BC91A02DB7CF80917F09909171
:1040B000800988169906E1F466167706C8F480919F
:1040C000100190911101009741F48DB79EB7409176
:1040D000140150911501841B950BE817F907C8F4DA
:1040E000F0938009E0937F09F901718360830FC029
:1040F000CB010E94A91E7C01009759F0A801BE01C6
:104100000E949520CE010E94411FC70104C0CE012C
:1041100002C080E090E0CDB7DEB7EEE00C940B1D5E
:1041200081E090E0F8940C94A520FB01DC0102C032
:1041300001900D9241505040D8F70895FB01DC01E9
:1041400001900D920020E1F7089511E0C7E3D1E05E
:1041500004C0FE010E948B1D2196C833D107C9F708
:04416000F894FFCF01
:104164002F736F6E61725F72616E676572003200E9
:10417400000083092000000000000000AB01C7021A
:10418400CC02A901000000000F0CF909CE01CB01FB
:1041940000000000DD0BA309C801C50100000000F8
:1041A4001D02D701D401D10100000000040B280432
:1041B400C201BF01000000004102E30562010000EA
:1041C40000000000370DA00CCE0C840DFF0CDD0C9C
:1041D400F10C000000001D0F0C0EB90DB60D00000F
:1041E4000000600FC50EB30DB00D00000000FA16FC
:1041F400FA16FA16FA164D657373616765206672CE
:104204006F6D206465766963652064726F70706594
:10421400643A206D657373616765206C61726765CC
:1042240072207468616E206275666665722E00463F
:104234006C6173682072656164206E6F7420696DAF
:10424400706C00427566666572206F766572666C86
:104254006F772070756200494E464F00646973742D
:10426400616E6365203D2000636D000D0A00726F6E
:10427400626F69782F72616E67655F646174610053
:104284006E616E00696E66006F76660020205B20AA
:1042940000205D202000706F7765725F6D6772008B
:1042A400444542554700524F5320636F6E6E656319
:1042B40074656400524F5320646973636F6E6E6556
:1042C4006374656400726F735F6E6F64655F6D67BE
:1042D4007200736F6E61725F6D6772004261747415
:1042E400657279206C6F773A20004261747465724C
:1042F400792046756C6C3A20004368617267657278
:1043040020446973636F6E6E65637465643A20005C
:00000001FF
